{
  "contractName": "Doctor",
  "abi": [
    {
      "inputs": [],
      "name": "getDoctorInfo",
      "outputs": [
        {
          "internalType": "string",
          "name": "",
          "type": "string"
        },
        {
          "internalType": "address[]",
          "name": "",
          "type": "address[]"
        }
      ],
      "stateMutability": "view",
      "type": "function"
    },
    {
      "inputs": [
        {
          "internalType": "string",
          "name": "_name",
          "type": "string"
        }
      ],
      "name": "signupDoctor",
      "outputs": [],
      "stateMutability": "nonpayable",
      "type": "function"
    }
  ],
  "bytecode": "0x608060405234801561001057600080fd5b50610f3f806100206000396000f3fe608060405234801561001057600080fd5b50600436106100365760003560e01c80636459d52f1461003b578063b380f5c614610057575b600080fd5b610055600480360381019061005091906109df565b610076565b005b61005f610402565b60405161006d929190610b97565b60405180910390f35b60008060003373ffffffffffffffffffffffffffffffffffffffff1673ffffffffffffffffffffffffffffffffffffffff1681526020019081526020016000206040518060600160405290816000820180546100d190610bfd565b80601f01602080910402602001604051908101604052809291908181526020018280546100fd90610bfd565b801561014a5780601f1061011f5761010080835404028352916020019161014a565b820191906000526020600020905b81548152906001019060200180831161012d57829003601f168201915b505050505081526020016001820160009054906101000a900473ffffffffffffffffffffffffffffffffffffffff1673ffffffffffffffffffffffffffffffffffffffff1673ffffffffffffffffffffffffffffffffffffffff1681526020016002820180548060200260200160405190810160405280929190818152602001828054801561022e57602002820191906000526020600020905b8160009054906101000a900473ffffffffffffffffffffffffffffffffffffffff1673ffffffffffffffffffffffffffffffffffffffff16815260200190600101908083116101e4575b50505050508152505090507fc5d2460186f7233c927e7db2dcc703c0e500b653ca82273b7bfad8045d85a4708260405160200161026b9190610c6a565b604051602081830303815290604052805190602001200361028b57600080fd5b600073ffffffffffffffffffffffffffffffffffffffff16816020015173ffffffffffffffffffffffffffffffffffffffff1611156102c957600080fd5b60405180606001604052808381526020013373ffffffffffffffffffffffffffffffffffffffff168152602001600067ffffffffffffffff811115610311576103106108b4565b5b60405190808252806020026020018201604052801561033f5781602001602082028036833780820191505090505b508152506000803373ffffffffffffffffffffffffffffffffffffffff1673ffffffffffffffffffffffffffffffffffffffff16815260200190815260200160002060008201518160000190816103969190610e37565b5060208201518160010160006101000a81548173ffffffffffffffffffffffffffffffffffffffff021916908373ffffffffffffffffffffffffffffffffffffffff16021790555060408201518160020190805190602001906103fa9291906107de565b509050505050565b6060803360008060008373ffffffffffffffffffffffffffffffffffffffff1673ffffffffffffffffffffffffffffffffffffffff16815260200190815260200160002060405180606001604052908160008201805461046190610bfd565b80601f016020809104026020016040519081016040528092919081815260200182805461048d90610bfd565b80156104da5780601f106104af576101008083540402835291602001916104da565b820191906000526020600020905b8154815290600101906020018083116104bd57829003601f168201915b505050505081526020016001820160009054906101000a900473ffffffffffffffffffffffffffffffffffffffff1673ffffffffffffffffffffffffffffffffffffffff1673ffffffffffffffffffffffffffffffffffffffff168152602001600282018054806020026020016040519081016040528092919081815260200182805480156105be57602002820191906000526020600020905b8160009054906101000a900473ffffffffffffffffffffffffffffffffffffffff1673ffffffffffffffffffffffffffffffffffffffff1681526020019060010190808311610574575b5050505050815250509050600073ffffffffffffffffffffffffffffffffffffffff16816020015173ffffffffffffffffffffffffffffffffffffffff161161060657600080fd5b60008060003373ffffffffffffffffffffffffffffffffffffffff1673ffffffffffffffffffffffffffffffffffffffff16815260200190815260200160002060405180606001604052908160008201805461066190610bfd565b80601f016020809104026020016040519081016040528092919081815260200182805461068d90610bfd565b80156106da5780601f106106af576101008083540402835291602001916106da565b820191906000526020600020905b8154815290600101906020018083116106bd57829003601f168201915b505050505081526020016001820160009054906101000a900473ffffffffffffffffffffffffffffffffffffffff1673ffffffffffffffffffffffffffffffffffffffff1673ffffffffffffffffffffffffffffffffffffffff168152602001600282018054806020026020016040519081016040528092919081815260200182805480156107be57602002820191906000526020600020905b8160009054906101000a900473ffffffffffffffffffffffffffffffffffffffff1673ffffffffffffffffffffffffffffffffffffffff1681526020019060010190808311610774575b505050505081525050905080600001518160400151945094505050509091565b828054828255906000526020600020908101928215610857579160200282015b828111156108565782518260006101000a81548173ffffffffffffffffffffffffffffffffffffffff021916908373ffffffffffffffffffffffffffffffffffffffff160217905550916020019190600101906107fe565b5b5090506108649190610868565b5090565b5b80821115610881576000816000905550600101610869565b5090565b6000604051905090565b600080fd5b600080fd5b600080fd5b600080fd5b6000601f19601f8301169050919050565b7f4e487b7100000000000000000000000000000000000000000000000000000000600052604160045260246000fd5b6108ec826108a3565b810181811067ffffffffffffffff8211171561090b5761090a6108b4565b5b80604052505050565b600061091e610885565b905061092a82826108e3565b919050565b600067ffffffffffffffff82111561094a576109496108b4565b5b610953826108a3565b9050602081019050919050565b82818337600083830152505050565b600061098261097d8461092f565b610914565b90508281526020810184848401111561099e5761099d61089e565b5b6109a9848285610960565b509392505050565b600082601f8301126109c6576109c5610899565b5b81356109d684826020860161096f565b91505092915050565b6000602082840312156109f5576109f461088f565b5b600082013567ffffffffffffffff811115610a1357610a12610894565b5b610a1f848285016109b1565b91505092915050565b600081519050919050565b600082825260208201905092915050565b60005b83811015610a62578082015181840152602081019050610a47565b60008484015250505050565b6000610a7982610a28565b610a838185610a33565b9350610a93818560208601610a44565b610a9c816108a3565b840191505092915050565b600081519050919050565b600082825260208201905092915050565b6000819050602082019050919050565b600073ffffffffffffffffffffffffffffffffffffffff82169050919050565b6000610afe82610ad3565b9050919050565b610b0e81610af3565b82525050565b6000610b208383610b05565b60208301905092915050565b6000602082019050919050565b6000610b4482610aa7565b610b4e8185610ab2565b9350610b5983610ac3565b8060005b83811015610b8a578151610b718882610b14565b9750610b7c83610b2c565b925050600181019050610b5d565b5085935050505092915050565b60006040820190508181036000830152610bb18185610a6e565b90508181036020830152610bc58184610b39565b90509392505050565b7f4e487b7100000000000000000000000000000000000000000000000000000000600052602260045260246000fd5b60006002820490506001821680610c1557607f821691505b602082108103610c2857610c27610bce565b5b50919050565b600081905092915050565b6000610c4482610a28565b610c4e8185610c2e565b9350610c5e818560208601610a44565b80840191505092915050565b6000610c768284610c39565b915081905092915050565b60008190508160005260206000209050919050565b60006020601f8301049050919050565b600082821b905092915050565b600060088302610ce37fffffffffffffffffffffffffffffffffffffffffffffffffffffffffffffffff82610ca6565b610ced8683610ca6565b95508019841693508086168417925050509392505050565b6000819050919050565b6000819050919050565b6000610d34610d2f610d2a84610d05565b610d0f565b610d05565b9050919050565b6000819050919050565b610d4e83610d19565b610d62610d5a82610d3b565b848454610cb3565b825550505050565b600090565b610d77610d6a565b610d82818484610d45565b505050565b5b81811015610da657610d9b600082610d6f565b600181019050610d88565b5050565b601f821115610deb57610dbc81610c81565b610dc584610c96565b81016020851015610dd4578190505b610de8610de085610c96565b830182610d87565b50505b505050565b600082821c905092915050565b6000610e0e60001984600802610df0565b1980831691505092915050565b6000610e278383610dfd565b9150826002028217905092915050565b610e4082610a28565b67ffffffffffffffff811115610e5957610e586108b4565b5b610e638254610bfd565b610e6e828285610daa565b600060209050601f831160018114610ea15760008415610e8f578287015190505b610e998582610e1b565b865550610f01565b601f198416610eaf86610c81565b60005b82811015610ed757848901518255600182019150602085019450602081019050610eb2565b86831015610ef45784890151610ef0601f891682610dfd565b8355505b6001600288020188555050505b50505050505056fea2646970667358221220f530a23dac2727c06dfac0b564205b835bd6a4fd2e50abe52522187b4a67312564736f6c63430008120033",
  "immutableReferences": {},
  "source": "//SPDX-License-Identifier: MIT\r\npragma solidity ^0.8.11;\r\n\r\ncontract Doctor {\r\n    mapping (address => doctor) internal doctors;\r\n    mapping (address => mapping(address => uint)) internal doctorToPatient;\r\n    \r\n    struct doctor {\r\n        string name;\r\n        address id;\r\n        address[] patient_list;\r\n    }\r\n    \r\n    modifier checkDoctor(address id) {\r\n        doctor memory d = doctors[id];\r\n        require(d.id > address(0x0));//check if doctor exist\r\n        _;\r\n    }\r\n    \r\n    function getDoctorInfo() public view checkDoctor(msg.sender) returns(string memory, address[] memory){\r\n        doctor memory d = doctors[msg.sender];\r\n        return (d.name, d.patient_list);\r\n    }\r\n    \r\n    function signupDoctor(string memory _name) public {\r\n        doctor memory d = doctors[msg.sender];\r\n        require(keccak256(abi.encodePacked(_name)) != keccak256(\"\"));\r\n        require(!(d.id > address(0x0)));\r\n\r\n        doctors[msg.sender] = doctor({name:_name,id:msg.sender,patient_list:new address[](0)});\r\n    }    \r\n    \r\n}",
  "sourcePath": "C:\\Users\\Hp\\Desktop\\blockchain\\contracts\\doctor.sol",
  "compiler": {
    "name": "solc",
    "version": "0.8.18+commit.87f61d96.Emscripten.clang"
  },
  "schemaVersion": "3.4.13",
  "updatedAt": "2023-05-02T10:34:43.826Z",
  "devdoc": {
    "kind": "dev",
    "methods": {},
    "version": 1
  },
  "userdoc": {
    "kind": "user",
    "methods": {},
    "version": 1
  }
}