{
  "contractName": "HealthCare1",
  "abi": [
    {
      "inputs": [],
      "stateMutability": "nonpayable",
      "type": "constructor"
    },
    {
      "inputs": [
        {
          "internalType": "string",
          "name": "_name",
          "type": "string"
        },
        {
          "internalType": "uint8",
          "name": "_age",
          "type": "uint8"
        }
      ],
      "name": "signupPatient",
      "outputs": [],
      "stateMutability": "nonpayable",
      "type": "function"
    },
    {
      "inputs": [
        {
          "internalType": "string",
          "name": "_name",
          "type": "string"
        }
      ],
      "name": "signupDoctor",
      "outputs": [],
      "stateMutability": "nonpayable",
      "type": "function"
    },
    {
      "inputs": [
        {
          "internalType": "address",
          "name": "doctor_id",
          "type": "address"
        }
      ],
      "name": "grantAccessToDoctor",
      "outputs": [],
      "stateMutability": "nonpayable",
      "type": "function"
    },
    {
      "inputs": [
        {
          "internalType": "string",
          "name": "_file_name",
          "type": "string"
        },
        {
          "internalType": "string",
          "name": "_file_type",
          "type": "string"
        },
        {
          "internalType": "bytes32",
          "name": "_fileHash",
          "type": "bytes32"
        },
        {
          "internalType": "string",
          "name": "_file_secret",
          "type": "string"
        }
      ],
      "name": "addFile",
      "outputs": [],
      "stateMutability": "nonpayable",
      "type": "function"
    },
    {
      "inputs": [],
      "name": "getPatientInfo",
      "outputs": [
        {
          "internalType": "string",
          "name": "",
          "type": "string"
        },
        {
          "internalType": "uint8",
          "name": "",
          "type": "uint8"
        },
        {
          "internalType": "bytes32[]",
          "name": "",
          "type": "bytes32[]"
        },
        {
          "internalType": "address[]",
          "name": "",
          "type": "address[]"
        }
      ],
      "stateMutability": "view",
      "type": "function"
    },
    {
      "inputs": [],
      "name": "getDoctorInfo",
      "outputs": [
        {
          "internalType": "string",
          "name": "",
          "type": "string"
        },
        {
          "internalType": "address[]",
          "name": "",
          "type": "address[]"
        }
      ],
      "stateMutability": "view",
      "type": "function"
    },
    {
      "inputs": [
        {
          "internalType": "address",
          "name": "_user",
          "type": "address"
        }
      ],
      "name": "checkProfile",
      "outputs": [
        {
          "internalType": "string",
          "name": "",
          "type": "string"
        },
        {
          "internalType": "string",
          "name": "",
          "type": "string"
        }
      ],
      "stateMutability": "view",
      "type": "function"
    },
    {
      "inputs": [
        {
          "internalType": "address",
          "name": "pat",
          "type": "address"
        }
      ],
      "name": "getPatientInfoForDoctor",
      "outputs": [
        {
          "internalType": "string",
          "name": "",
          "type": "string"
        },
        {
          "internalType": "uint8",
          "name": "",
          "type": "uint8"
        },
        {
          "internalType": "address",
          "name": "",
          "type": "address"
        },
        {
          "internalType": "bytes32[]",
          "name": "",
          "type": "bytes32[]"
        }
      ],
      "stateMutability": "view",
      "type": "function"
    },
    {
      "inputs": [
        {
          "internalType": "bytes32",
          "name": "fileHashId",
          "type": "bytes32"
        },
        {
          "internalType": "string",
          "name": "role",
          "type": "string"
        },
        {
          "internalType": "address",
          "name": "id",
          "type": "address"
        },
        {
          "internalType": "address",
          "name": "pat",
          "type": "address"
        }
      ],
      "name": "getFileSecret",
      "outputs": [
        {
          "internalType": "string",
          "name": "",
          "type": "string"
        }
      ],
      "stateMutability": "view",
      "type": "function"
    },
    {
      "inputs": [
        {
          "internalType": "address",
          "name": "doc",
          "type": "address"
        },
        {
          "internalType": "address",
          "name": "pat",
          "type": "address"
        },
        {
          "internalType": "bytes32",
          "name": "fileHashId",
          "type": "bytes32"
        }
      ],
      "name": "getFileInfoDoctor",
      "outputs": [
        {
          "internalType": "string",
          "name": "",
          "type": "string"
        },
        {
          "internalType": "string",
          "name": "",
          "type": "string"
        }
      ],
      "stateMutability": "view",
      "type": "function"
    },
    {
      "inputs": [
        {
          "internalType": "address",
          "name": "pat",
          "type": "address"
        },
        {
          "internalType": "bytes32",
          "name": "fileHashId",
          "type": "bytes32"
        }
      ],
      "name": "getFileInfoPatient",
      "outputs": [
        {
          "internalType": "string",
          "name": "",
          "type": "string"
        },
        {
          "internalType": "string",
          "name": "",
          "type": "string"
        }
      ],
      "stateMutability": "view",
      "type": "function"
    }
  ],
  "bytecode": "0x608060405234801561001057600080fd5b50336000806101000a81548173ffffffffffffffffffffffffffffffffffffffff021916908373ffffffffffffffffffffffffffffffffffffffff1602179055506149ba806100606000396000f3fe608060405234801561001057600080fd5b50600436106100a95760003560e01c80637f34cf94116100715780637f34cf94146101545780639f6a7a1114610185578063b259832d146101a1578063b380f5c6146101d2578063cf954d45146101f1578063fe59cc1a14610221576100a9565b806301d99258146100ae5780631c8e251c146100df578063326df664146100fb5780636459d52f1461011c5780637120203a14610138575b600080fd5b6100c860048036038101906100c39190613e9b565b610254565b6040516100d6929190613f58565b60405180910390f35b6100f960048036038101906100f49190613e9b565b6107d6565b005b610103610ec6565b6040516101139493929190614131565b60405180910390f35b610136600480360381019061013191906142c0565b6113a2565b005b610152600480360381019061014d9190614335565b611730565b005b61016e600480360381019061016991906143bd565b611be9565b60405161017c929190613f58565b60405180910390f35b61019f600480360381019061019a9190614410565b61230f565b005b6101bb60048036038101906101b691906144cb565b61272f565b6040516101c9929190613f58565b60405180910390f35b6101da612c50565b6040516101e892919061450b565b60405180910390f35b61020b60048036038101906102069190614542565b61302e565b60405161021891906145c5565b60405180910390f35b61023b60048036038101906102369190613e9b565b6132f6565b60405161024b94939291906145f6565b60405180910390f35b60608060008054906101000a900473ffffffffffffffffffffffffffffffffffffffff1673ffffffffffffffffffffffffffffffffffffffff163373ffffffffffffffffffffffffffffffffffffffff16146102af57600080fd5b6000600360008573ffffffffffffffffffffffffffffffffffffffff1673ffffffffffffffffffffffffffffffffffffffff1681526020019081526020016000206040518060a001604052908160008201805461030b90614678565b80601f016020809104026020016040519081016040528092919081815260200182805461033790614678565b80156103845780601f1061035957610100808354040283529160200191610384565b820191906000526020600020905b81548152906001019060200180831161036757829003601f168201915b505050505081526020016001820160009054906101000a900460ff1660ff1660ff1681526020016001820160019054906101000a900473ffffffffffffffffffffffffffffffffffffffff1673ffffffffffffffffffffffffffffffffffffffff1673ffffffffffffffffffffffffffffffffffffffff1681526020016002820180548060200260200160405190810160405280929190818152602001828054801561044f57602002820191906000526020600020905b81548152602001906001019080831161043b575b50505050508152602001600382018054806020026020016040519081016040528092919081815260200182805480156104dd57602002820191906000526020600020905b8160009054906101000a900473ffffffffffffffffffffffffffffffffffffffff1673ffffffffffffffffffffffffffffffffffffffff1681526020019060010190808311610493575b50505050508152505090506000600160008673ffffffffffffffffffffffffffffffffffffffff1673ffffffffffffffffffffffffffffffffffffffff16815260200190815260200160002060405180606001604052908160008201805461054490614678565b80601f016020809104026020016040519081016040528092919081815260200182805461057090614678565b80156105bd5780601f10610592576101008083540402835291602001916105bd565b820191906000526020600020905b8154815290600101906020018083116105a057829003601f168201915b505050505081526020016001820160009054906101000a900473ffffffffffffffffffffffffffffffffffffffff1673ffffffffffffffffffffffffffffffffffffffff1673ffffffffffffffffffffffffffffffffffffffff168152602001600282018054806020026020016040519081016040528092919081815260200182805480156106a157602002820191906000526020600020905b8160009054906101000a900473ffffffffffffffffffffffffffffffffffffffff1673ffffffffffffffffffffffffffffffffffffffff1681526020019060010190808311610657575b5050505050815250509050600073ffffffffffffffffffffffffffffffffffffffff16826040015173ffffffffffffffffffffffffffffffffffffffff16111561072b5781600001516040518060400160405280600781526020017f70617469656e74000000000000000000000000000000000000000000000000008152509350935050506107d1565b600073ffffffffffffffffffffffffffffffffffffffff16816020015173ffffffffffffffffffffffffffffffffffffffff1611156107aa5780600001516040518060400160405280600681526020017f646f63746f7200000000000000000000000000000000000000000000000000008152509350935050506107d1565b60405180602001604052806000815250604051806020016040528060008152509350935050505b915091565b336000600360008373ffffffffffffffffffffffffffffffffffffffff1673ffffffffffffffffffffffffffffffffffffffff1681526020019081526020016000206040518060a001604052908160008201805461083390614678565b80601f016020809104026020016040519081016040528092919081815260200182805461085f90614678565b80156108ac5780601f10610881576101008083540402835291602001916108ac565b820191906000526020600020905b81548152906001019060200180831161088f57829003601f168201915b505050505081526020016001820160009054906101000a900460ff1660ff1660ff1681526020016001820160019054906101000a900473ffffffffffffffffffffffffffffffffffffffff1673ffffffffffffffffffffffffffffffffffffffff1673ffffffffffffffffffffffffffffffffffffffff1681526020016002820180548060200260200160405190810160405280929190818152602001828054801561097757602002820191906000526020600020905b815481526020019060010190808311610963575b5050505050815260200160038201805480602002602001604051908101604052809291908181526020018280548015610a0557602002820191906000526020600020905b8160009054906101000a900473ffffffffffffffffffffffffffffffffffffffff1673ffffffffffffffffffffffffffffffffffffffff16815260200190600101908083116109bb575b5050505050815250509050600073ffffffffffffffffffffffffffffffffffffffff16816040015173ffffffffffffffffffffffffffffffffffffffff1611610a4d57600080fd5b826000600160008373ffffffffffffffffffffffffffffffffffffffff1673ffffffffffffffffffffffffffffffffffffffff168152602001908152602001600020604051806060016040529081600082018054610aaa90614678565b80601f0160208091040260200160405190810160405280929190818152602001828054610ad690614678565b8015610b235780601f10610af857610100808354040283529160200191610b23565b820191906000526020600020905b815481529060010190602001808311610b0657829003601f168201915b505050505081526020016001820160009054906101000a900473ffffffffffffffffffffffffffffffffffffffff1673ffffffffffffffffffffffffffffffffffffffff1673ffffffffffffffffffffffffffffffffffffffff16815260200160028201805480602002602001604051908101604052809291908181526020018280548015610c0757602002820191906000526020600020905b8160009054906101000a900473ffffffffffffffffffffffffffffffffffffffff1673ffffffffffffffffffffffffffffffffffffffff1681526020019060010190808311610bbd575b5050505050815250509050600073ffffffffffffffffffffffffffffffffffffffff16816020015173ffffffffffffffffffffffffffffffffffffffff1611610c4f57600080fd5b6000600360003373ffffffffffffffffffffffffffffffffffffffff1673ffffffffffffffffffffffffffffffffffffffff16815260200190815260200160002090506000600160008873ffffffffffffffffffffffffffffffffffffffff1673ffffffffffffffffffffffffffffffffffffffff16815260200190815260200160002090506001600460003373ffffffffffffffffffffffffffffffffffffffff1673ffffffffffffffffffffffffffffffffffffffff16815260200190815260200160002060008973ffffffffffffffffffffffffffffffffffffffff1673ffffffffffffffffffffffffffffffffffffffff1681526020019081526020016000205410610d5e57600080fd5b81600301879080600181540180825580915050600190039060005260206000200160009091909190916101000a81548173ffffffffffffffffffffffffffffffffffffffff021916908373ffffffffffffffffffffffffffffffffffffffff1602179055506000826003018054905090508060078190555080600460003373ffffffffffffffffffffffffffffffffffffffff1673ffffffffffffffffffffffffffffffffffffffff16815260200190815260200160002060008a73ffffffffffffffffffffffffffffffffffffffff1673ffffffffffffffffffffffffffffffffffffffff1681526020019081526020016000208190555081600201339080600181540180825580915050600190039060005260206000200160009091909190916101000a81548173ffffffffffffffffffffffffffffffffffffffff021916908373ffffffffffffffffffffffffffffffffffffffff1602179055505050505050505050565b60606000606080336000600360008373ffffffffffffffffffffffffffffffffffffffff1673ffffffffffffffffffffffffffffffffffffffff1681526020019081526020016000206040518060a0016040529081600082018054610f2a90614678565b80601f0160208091040260200160405190810160405280929190818152602001828054610f5690614678565b8015610fa35780601f10610f7857610100808354040283529160200191610fa3565b820191906000526020600020905b815481529060010190602001808311610f8657829003601f168201915b505050505081526020016001820160009054906101000a900460ff1660ff1660ff1681526020016001820160019054906101000a900473ffffffffffffffffffffffffffffffffffffffff1673ffffffffffffffffffffffffffffffffffffffff1673ffffffffffffffffffffffffffffffffffffffff1681526020016002820180548060200260200160405190810160405280929190818152602001828054801561106e57602002820191906000526020600020905b81548152602001906001019080831161105a575b50505050508152602001600382018054806020026020016040519081016040528092919081815260200182805480156110fc57602002820191906000526020600020905b8160009054906101000a900473ffffffffffffffffffffffffffffffffffffffff1673ffffffffffffffffffffffffffffffffffffffff16815260200190600101908083116110b2575b5050505050815250509050600073ffffffffffffffffffffffffffffffffffffffff16816040015173ffffffffffffffffffffffffffffffffffffffff161161114457600080fd5b6000600360003373ffffffffffffffffffffffffffffffffffffffff1673ffffffffffffffffffffffffffffffffffffffff1681526020019081526020016000206040518060a00160405290816000820180546111a090614678565b80601f01602080910402602001604051908101604052809291908181526020018280546111cc90614678565b80156112195780601f106111ee57610100808354040283529160200191611219565b820191906000526020600020905b8154815290600101906020018083116111fc57829003601f168201915b505050505081526020016001820160009054906101000a900460ff1660ff1660ff1681526020016001820160019054906101000a900473ffffffffffffffffffffffffffffffffffffffff1673ffffffffffffffffffffffffffffffffffffffff1673ffffffffffffffffffffffffffffffffffffffff168152602001600282018054806020026020016040519081016040528092919081815260200182805480156112e457602002820191906000526020600020905b8154815260200190600101908083116112d0575b505050505081526020016003820180548060200260200160405190810160405280929190818152602001828054801561137257602002820191906000526020600020905b8160009054906101000a900473ffffffffffffffffffffffffffffffffffffffff1673ffffffffffffffffffffffffffffffffffffffff1681526020019060010190808311611328575b50505050508152505090508060000151816020015182606001518360800151965096509650965050505090919293565b6000600160003373ffffffffffffffffffffffffffffffffffffffff1673ffffffffffffffffffffffffffffffffffffffff1681526020019081526020016000206040518060600160405290816000820180546113fe90614678565b80601f016020809104026020016040519081016040528092919081815260200182805461142a90614678565b80156114775780601f1061144c57610100808354040283529160200191611477565b820191906000526020600020905b81548152906001019060200180831161145a57829003601f168201915b505050505081526020016001820160009054906101000a900473ffffffffffffffffffffffffffffffffffffffff1673ffffffffffffffffffffffffffffffffffffffff1673ffffffffffffffffffffffffffffffffffffffff1681526020016002820180548060200260200160405190810160405280929190818152602001828054801561155b57602002820191906000526020600020905b8160009054906101000a900473ffffffffffffffffffffffffffffffffffffffff1673ffffffffffffffffffffffffffffffffffffffff1681526020019060010190808311611511575b50505050508152505090507fc5d2460186f7233c927e7db2dcc703c0e500b653ca82273b7bfad8045d85a4708260405160200161159891906146e5565b60405160208183030381529060405280519060200120036115b857600080fd5b600073ffffffffffffffffffffffffffffffffffffffff16816020015173ffffffffffffffffffffffffffffffffffffffff1611156115f657600080fd5b60405180606001604052808381526020013373ffffffffffffffffffffffffffffffffffffffff168152602001600067ffffffffffffffff81111561163e5761163d614195565b5b60405190808252806020026020018201604052801561166c5781602001602082028036833780820191505090505b50815250600160003373ffffffffffffffffffffffffffffffffffffffff1673ffffffffffffffffffffffffffffffffffffffff16815260200190815260200160002060008201518160000190816116c491906148b2565b5060208201518160010160006101000a81548173ffffffffffffffffffffffffffffffffffffffff021916908373ffffffffffffffffffffffffffffffffffffffff1602179055506040820151816002019080519060200190611728929190613cf7565b509050505050565b6000600360003373ffffffffffffffffffffffffffffffffffffffff1673ffffffffffffffffffffffffffffffffffffffff1681526020019081526020016000206040518060a001604052908160008201805461178c90614678565b80601f01602080910402602001604051908101604052809291908181526020018280546117b890614678565b80156118055780601f106117da57610100808354040283529160200191611805565b820191906000526020600020905b8154815290600101906020018083116117e857829003601f168201915b505050505081526020016001820160009054906101000a900460ff1660ff1660ff1681526020016001820160019054906101000a900473ffffffffffffffffffffffffffffffffffffffff1673ffffffffffffffffffffffffffffffffffffffff1673ffffffffffffffffffffffffffffffffffffffff168152602001600282018054806020026020016040519081016040528092919081815260200182805480156118d057602002820191906000526020600020905b8154815260200190600101908083116118bc575b505050505081526020016003820180548060200260200160405190810160405280929190818152602001828054801561195e57602002820191906000526020600020905b8160009054906101000a900473ffffffffffffffffffffffffffffffffffffffff1673ffffffffffffffffffffffffffffffffffffffff1681526020019060010190808311611914575b50505050508152505090507fc5d2460186f7233c927e7db2dcc703c0e500b653ca82273b7bfad8045d85a4708360405160200161199b91906146e5565b60405160208183030381529060405280519060200120036119bb57600080fd5b60008260ff161180156119d1575060648260ff16105b6119da57600080fd5b600073ffffffffffffffffffffffffffffffffffffffff16816040015173ffffffffffffffffffffffffffffffffffffffff161115611a1857600080fd5b6040518060a001604052808481526020018360ff1681526020013373ffffffffffffffffffffffffffffffffffffffff168152602001600067ffffffffffffffff811115611a6957611a68614195565b5b604051908082528060200260200182016040528015611a975781602001602082028036833780820191505090505b508152602001600067ffffffffffffffff811115611ab857611ab7614195565b5b604051908082528060200260200182016040528015611ae65781602001602082028036833780820191505090505b50815250600360003373ffffffffffffffffffffffffffffffffffffffff1673ffffffffffffffffffffffffffffffffffffffff1681526020019081526020016000206000820151816000019081611b3e91906148b2565b5060208201518160010160006101000a81548160ff021916908360ff16021790555060408201518160010160016101000a81548173ffffffffffffffffffffffffffffffffffffffff021916908373ffffffffffffffffffffffffffffffffffffffff1602179055506060820151816002019080519060200190611bc3929190613d81565b506080820151816003019080519060200190611be0929190613cf7565b50905050505050565b60608060008054906101000a900473ffffffffffffffffffffffffffffffffffffffff1673ffffffffffffffffffffffffffffffffffffffff163373ffffffffffffffffffffffffffffffffffffffff1614611c4457600080fd5b836000600360008373ffffffffffffffffffffffffffffffffffffffff1673ffffffffffffffffffffffffffffffffffffffff1681526020019081526020016000206040518060a0016040529081600082018054611ca190614678565b80601f0160208091040260200160405190810160405280929190818152602001828054611ccd90614678565b8015611d1a5780601f10611cef57610100808354040283529160200191611d1a565b820191906000526020600020905b815481529060010190602001808311611cfd57829003601f168201915b505050505081526020016001820160009054906101000a900460ff1660ff1660ff1681526020016001820160019054906101000a900473ffffffffffffffffffffffffffffffffffffffff1673ffffffffffffffffffffffffffffffffffffffff1673ffffffffffffffffffffffffffffffffffffffff16815260200160028201805480602002602001604051908101604052809291908181526020018280548015611de557602002820191906000526020600020905b815481526020019060010190808311611dd1575b5050505050815260200160038201805480602002602001604051908101604052809291908181526020018280548015611e7357602002820191906000526020600020905b8160009054906101000a900473ffffffffffffffffffffffffffffffffffffffff1673ffffffffffffffffffffffffffffffffffffffff1681526020019060010190808311611e29575b5050505050815250509050600073ffffffffffffffffffffffffffffffffffffffff16816040015173ffffffffffffffffffffffffffffffffffffffff1611611ebb57600080fd5b866000600160008373ffffffffffffffffffffffffffffffffffffffff1673ffffffffffffffffffffffffffffffffffffffff168152602001908152602001600020604051806060016040529081600082018054611f1890614678565b80601f0160208091040260200160405190810160405280929190818152602001828054611f4490614678565b8015611f915780601f10611f6657610100808354040283529160200191611f91565b820191906000526020600020905b815481529060010190602001808311611f7457829003601f168201915b505050505081526020016001820160009054906101000a900473ffffffffffffffffffffffffffffffffffffffff1673ffffffffffffffffffffffffffffffffffffffff1673ffffffffffffffffffffffffffffffffffffffff1681526020016002820180548060200260200160405190810160405280929190818152602001828054801561207557602002820191906000526020600020905b8160009054906101000a900473ffffffffffffffffffffffffffffffffffffffff1673ffffffffffffffffffffffffffffffffffffffff168152602001906001019080831161202b575b5050505050815250509050600073ffffffffffffffffffffffffffffffffffffffff16816020015173ffffffffffffffffffffffffffffffffffffffff16116120bd57600080fd5b6040518060400160405280600681526020017f646f63746f72000000000000000000000000000000000000000000000000000081525089888a60007fec03945fa2196716a09674e2cd6a57153479ecb05ea91e189e2688f793ab53818560405160200161212a91906146e5565b6040516020818303038152906040528051906020012003612233576000600460008473ffffffffffffffffffffffffffffffffffffffff1673ffffffffffffffffffffffffffffffffffffffff16815260200190815260200160002060008673ffffffffffffffffffffffffffffffffffffffff1673ffffffffffffffffffffffffffffffffffffffff16815260200190815260200160002054116121ce57600080fd5b600660008373ffffffffffffffffffffffffffffffffffffffff1673ffffffffffffffffffffffffffffffffffffffff16815260200190815260200160002060008481526020019081526020016000205490506000811161222e57600080fd5b6122e2565b7fdc3b9d7fd28cfc7a70a999f2eb4b60672e6b88c8ed3280f4fb467b501b62b92e8560405160200161226591906146e5565b60405160208183030381529060405280519060200120036122e157600660008573ffffffffffffffffffffffffffffffffffffffff1673ffffffffffffffffffffffffffffffffffffffff1681526020019081526020016000206000848152602001908152602001600020549050600081116122e057600080fd5b5b5b60006122ed8d613a60565b9050806000015181602001519b509b5050505050505050505050935093915050565b336000600360008373ffffffffffffffffffffffffffffffffffffffff1673ffffffffffffffffffffffffffffffffffffffff1681526020019081526020016000206040518060a001604052908160008201805461236c90614678565b80601f016020809104026020016040519081016040528092919081815260200182805461239890614678565b80156123e55780601f106123ba576101008083540402835291602001916123e5565b820191906000526020600020905b8154815290600101906020018083116123c857829003601f168201915b505050505081526020016001820160009054906101000a900460ff1660ff1660ff1681526020016001820160019054906101000a900473ffffffffffffffffffffffffffffffffffffffff1673ffffffffffffffffffffffffffffffffffffffff1673ffffffffffffffffffffffffffffffffffffffff168152602001600282018054806020026020016040519081016040528092919081815260200182805480156124b057602002820191906000526020600020905b81548152602001906001019080831161249c575b505050505081526020016003820180548060200260200160405190810160405280929190818152602001828054801561253e57602002820191906000526020600020905b8160009054906101000a900473ffffffffffffffffffffffffffffffffffffffff1673ffffffffffffffffffffffffffffffffffffffff16815260200190600101908083116124f4575b5050505050815250509050600073ffffffffffffffffffffffffffffffffffffffff16816040015173ffffffffffffffffffffffffffffffffffffffff161161258657600080fd5b6000600360003373ffffffffffffffffffffffffffffffffffffffff1673ffffffffffffffffffffffffffffffffffffffff16815260200190815260200160002090506001600660003373ffffffffffffffffffffffffffffffffffffffff1673ffffffffffffffffffffffffffffffffffffffff1681526020019081526020016000206000878152602001908152602001600020541061262657600080fd5b60405180606001604052808881526020018781526020018581525060056000878152602001908152602001600020600082015181600001908161266991906148b2565b50602082015181600101908161267f91906148b2565b50604082015181600201908161269591906148b2565b509050508060020185908060018154018082558091505060019003906000526020600020016000909190919091505560008160020180549050905080600660003373ffffffffffffffffffffffffffffffffffffffff1673ffffffffffffffffffffffffffffffffffffffff1681526020019081526020016000206000888152602001908152602001600020819055505050505050505050565b60608060008054906101000a900473ffffffffffffffffffffffffffffffffffffffff1673ffffffffffffffffffffffffffffffffffffffff163373ffffffffffffffffffffffffffffffffffffffff161461278a57600080fd5b836000600360008373ffffffffffffffffffffffffffffffffffffffff1673ffffffffffffffffffffffffffffffffffffffff1681526020019081526020016000206040518060a00160405290816000820180546127e790614678565b80601f016020809104026020016040519081016040528092919081815260200182805461281390614678565b80156128605780601f1061283557610100808354040283529160200191612860565b820191906000526020600020905b81548152906001019060200180831161284357829003601f168201915b505050505081526020016001820160009054906101000a900460ff1660ff1660ff1681526020016001820160019054906101000a900473ffffffffffffffffffffffffffffffffffffffff1673ffffffffffffffffffffffffffffffffffffffff1673ffffffffffffffffffffffffffffffffffffffff1681526020016002820180548060200260200160405190810160405280929190818152602001828054801561292b57602002820191906000526020600020905b815481526020019060010190808311612917575b50505050508152602001600382018054806020026020016040519081016040528092919081815260200182805480156129b957602002820191906000526020600020905b8160009054906101000a900473ffffffffffffffffffffffffffffffffffffffff1673ffffffffffffffffffffffffffffffffffffffff168152602001906001019080831161296f575b5050505050815250509050600073ffffffffffffffffffffffffffffffffffffffff16816040015173ffffffffffffffffffffffffffffffffffffffff1611612a0157600080fd5b6040518060400160405280600781526020017f70617469656e740000000000000000000000000000000000000000000000000081525086868860007fec03945fa2196716a09674e2cd6a57153479ecb05ea91e189e2688f793ab538185604051602001612a6e91906146e5565b6040516020818303038152906040528051906020012003612b77576000600460008473ffffffffffffffffffffffffffffffffffffffff1673ffffffffffffffffffffffffffffffffffffffff16815260200190815260200160002060008673ffffffffffffffffffffffffffffffffffffffff1673ffffffffffffffffffffffffffffffffffffffff1681526020019081526020016000205411612b1257600080fd5b600660008373ffffffffffffffffffffffffffffffffffffffff1673ffffffffffffffffffffffffffffffffffffffff168152602001908152602001600020600084815260200190815260200160002054905060008111612b7257600080fd5b612c26565b7fdc3b9d7fd28cfc7a70a999f2eb4b60672e6b88c8ed3280f4fb467b501b62b92e85604051602001612ba991906146e5565b6040516020818303038152906040528051906020012003612c2557600660008573ffffffffffffffffffffffffffffffffffffffff1673ffffffffffffffffffffffffffffffffffffffff168152602001908152602001600020600084815260200190815260200160002054905060008111612c2457600080fd5b5b5b6000612c318b613a60565b9050806000015181602001519950995050505050505050509250929050565b606080336000600160008373ffffffffffffffffffffffffffffffffffffffff1673ffffffffffffffffffffffffffffffffffffffff168152602001908152602001600020604051806060016040529081600082018054612cb090614678565b80601f0160208091040260200160405190810160405280929190818152602001828054612cdc90614678565b8015612d295780601f10612cfe57610100808354040283529160200191612d29565b820191906000526020600020905b815481529060010190602001808311612d0c57829003601f168201915b505050505081526020016001820160009054906101000a900473ffffffffffffffffffffffffffffffffffffffff1673ffffffffffffffffffffffffffffffffffffffff1673ffffffffffffffffffffffffffffffffffffffff16815260200160028201805480602002602001604051908101604052809291908181526020018280548015612e0d57602002820191906000526020600020905b8160009054906101000a900473ffffffffffffffffffffffffffffffffffffffff1673ffffffffffffffffffffffffffffffffffffffff1681526020019060010190808311612dc3575b5050505050815250509050600073ffffffffffffffffffffffffffffffffffffffff16816020015173ffffffffffffffffffffffffffffffffffffffff1611612e5557600080fd5b6000600160003373ffffffffffffffffffffffffffffffffffffffff1673ffffffffffffffffffffffffffffffffffffffff168152602001908152602001600020604051806060016040529081600082018054612eb190614678565b80601f0160208091040260200160405190810160405280929190818152602001828054612edd90614678565b8015612f2a5780601f10612eff57610100808354040283529160200191612f2a565b820191906000526020600020905b815481529060010190602001808311612f0d57829003601f168201915b505050505081526020016001820160009054906101000a900473ffffffffffffffffffffffffffffffffffffffff1673ffffffffffffffffffffffffffffffffffffffff1673ffffffffffffffffffffffffffffffffffffffff1681526020016002820180548060200260200160405190810160405280929190818152602001828054801561300e57602002820191906000526020600020905b8160009054906101000a900473ffffffffffffffffffffffffffffffffffffffff1673ffffffffffffffffffffffffffffffffffffffff1681526020019060010190808311612fc4575b505050505081525050905080600001518160400151945094505050509091565b606084600060056000838152602001908152602001600020600001805461305490614678565b80601f016020809104026020016040519081016040528092919081815260200182805461308090614678565b80156130cd5780601f106130a2576101008083540402835291602001916130cd565b820191906000526020600020905b8154815290600101906020018083116130b057829003601f168201915b5050505050905060008151116130e257600080fd5b8585888660007fec03945fa2196716a09674e2cd6a57153479ecb05ea91e189e2688f793ab53818560405160200161311a91906146e5565b6040516020818303038152906040528051906020012003613223576000600460008473ffffffffffffffffffffffffffffffffffffffff1673ffffffffffffffffffffffffffffffffffffffff16815260200190815260200160002060008673ffffffffffffffffffffffffffffffffffffffff1673ffffffffffffffffffffffffffffffffffffffff16815260200190815260200160002054116131be57600080fd5b600660008373ffffffffffffffffffffffffffffffffffffffff1673ffffffffffffffffffffffffffffffffffffffff16815260200190815260200160002060008481526020019081526020016000205490506000811161321e57600080fd5b6132d2565b7fdc3b9d7fd28cfc7a70a999f2eb4b60672e6b88c8ed3280f4fb467b501b62b92e8560405160200161325591906146e5565b60405160208183030381529060405280519060200120036132d157600660008573ffffffffffffffffffffffffffffffffffffffff1673ffffffffffffffffffffffffffffffffffffffff1681526020019081526020016000206000848152602001908152602001600020549050600081116132d057600080fd5b5b5b60006132dd8d613a60565b9050806040015198505050505050505050949350505050565b60606000806060846000600360008373ffffffffffffffffffffffffffffffffffffffff1673ffffffffffffffffffffffffffffffffffffffff1681526020019081526020016000206040518060a001604052908160008201805461335a90614678565b80601f016020809104026020016040519081016040528092919081815260200182805461338690614678565b80156133d35780601f106133a8576101008083540402835291602001916133d3565b820191906000526020600020905b8154815290600101906020018083116133b657829003601f168201915b505050505081526020016001820160009054906101000a900460ff1660ff1660ff1681526020016001820160019054906101000a900473ffffffffffffffffffffffffffffffffffffffff1673ffffffffffffffffffffffffffffffffffffffff1673ffffffffffffffffffffffffffffffffffffffff1681526020016002820180548060200260200160405190810160405280929190818152602001828054801561349e57602002820191906000526020600020905b81548152602001906001019080831161348a575b505050505081526020016003820180548060200260200160405190810160405280929190818152602001828054801561352c57602002820191906000526020600020905b8160009054906101000a900473ffffffffffffffffffffffffffffffffffffffff1673ffffffffffffffffffffffffffffffffffffffff16815260200190600101908083116134e2575b5050505050815250509050600073ffffffffffffffffffffffffffffffffffffffff16816040015173ffffffffffffffffffffffffffffffffffffffff161161357457600080fd5b336000600160008373ffffffffffffffffffffffffffffffffffffffff1673ffffffffffffffffffffffffffffffffffffffff1681526020019081526020016000206040518060600160405290816000820180546135d190614678565b80601f01602080910402602001604051908101604052809291908181526020018280546135fd90614678565b801561364a5780601f1061361f5761010080835404028352916020019161364a565b820191906000526020600020905b81548152906001019060200180831161362d57829003601f168201915b505050505081526020016001820160009054906101000a900473ffffffffffffffffffffffffffffffffffffffff1673ffffffffffffffffffffffffffffffffffffffff1673ffffffffffffffffffffffffffffffffffffffff1681526020016002820180548060200260200160405190810160405280929190818152602001828054801561372e57602002820191906000526020600020905b8160009054906101000a900473ffffffffffffffffffffffffffffffffffffffff1673ffffffffffffffffffffffffffffffffffffffff16815260200190600101908083116136e4575b5050505050815250509050600073ffffffffffffffffffffffffffffffffffffffff16816020015173ffffffffffffffffffffffffffffffffffffffff161161377657600080fd5b6000600360008b73ffffffffffffffffffffffffffffffffffffffff1673ffffffffffffffffffffffffffffffffffffffff1681526020019081526020016000206040518060a00160405290816000820180546137d290614678565b80601f01602080910402602001604051908101604052809291908181526020018280546137fe90614678565b801561384b5780601f106138205761010080835404028352916020019161384b565b820191906000526020600020905b81548152906001019060200180831161382e57829003601f168201915b505050505081526020016001820160009054906101000a900460ff1660ff1660ff1681526020016001820160019054906101000a900473ffffffffffffffffffffffffffffffffffffffff1673ffffffffffffffffffffffffffffffffffffffff1673ffffffffffffffffffffffffffffffffffffffff1681526020016002820180548060200260200160405190810160405280929190818152602001828054801561391657602002820191906000526020600020905b815481526020019060010190808311613902575b50505050508152602001600382018054806020026020016040519081016040528092919081815260200182805480156139a457602002820191906000526020600020905b8160009054906101000a900473ffffffffffffffffffffffffffffffffffffffff1673ffffffffffffffffffffffffffffffffffffffff168152602001906001019080831161395a575b50505050508152505090506000600460008c73ffffffffffffffffffffffffffffffffffffffff1673ffffffffffffffffffffffffffffffffffffffff16815260200190815260200160002060003373ffffffffffffffffffffffffffffffffffffffff1673ffffffffffffffffffffffffffffffffffffffff1681526020019081526020016000205411613a3857600080fd5b8060000151816020015182604001518360600151985098509850985050505050509193509193565b613a68613dce565b816000600560008381526020019081526020016000206000018054613a8c90614678565b80601f0160208091040260200160405190810160405280929190818152602001828054613ab890614678565b8015613b055780601f10613ada57610100808354040283529160200191613b05565b820191906000526020600020905b815481529060010190602001808311613ae857829003601f168201915b505050505090506000815111613b1a57600080fd5b60056000858152602001908152602001600020604051806060016040529081600082018054613b4890614678565b80601f0160208091040260200160405190810160405280929190818152602001828054613b7490614678565b8015613bc15780601f10613b9657610100808354040283529160200191613bc1565b820191906000526020600020905b815481529060010190602001808311613ba457829003601f168201915b50505050508152602001600182018054613bda90614678565b80601f0160208091040260200160405190810160405280929190818152602001828054613c0690614678565b8015613c535780601f10613c2857610100808354040283529160200191613c53565b820191906000526020600020905b815481529060010190602001808311613c3657829003601f168201915b50505050508152602001600282018054613c6c90614678565b80601f0160208091040260200160405190810160405280929190818152602001828054613c9890614678565b8015613ce55780601f10613cba57610100808354040283529160200191613ce5565b820191906000526020600020905b815481529060010190602001808311613cc857829003601f168201915b50505050508152505092505050919050565b828054828255906000526020600020908101928215613d70579160200282015b82811115613d6f5782518260006101000a81548173ffffffffffffffffffffffffffffffffffffffff021916908373ffffffffffffffffffffffffffffffffffffffff16021790555091602001919060010190613d17565b5b509050613d7d9190613def565b5090565b828054828255906000526020600020908101928215613dbd579160200282015b82811115613dbc578251825591602001919060010190613da1565b5b509050613dca9190613e0c565b5090565b60405180606001604052806060815260200160608152602001606081525090565b5b80821115613e08576000816000905550600101613df0565b5090565b5b80821115613e25576000816000905550600101613e0d565b5090565b6000604051905090565b600080fd5b600080fd5b600073ffffffffffffffffffffffffffffffffffffffff82169050919050565b6000613e6882613e3d565b9050919050565b613e7881613e5d565b8114613e8357600080fd5b50565b600081359050613e9581613e6f565b92915050565b600060208284031215613eb157613eb0613e33565b5b6000613ebf84828501613e86565b91505092915050565b600081519050919050565b600082825260208201905092915050565b60005b83811015613f02578082015181840152602081019050613ee7565b60008484015250505050565b6000601f19601f8301169050919050565b6000613f2a82613ec8565b613f348185613ed3565b9350613f44818560208601613ee4565b613f4d81613f0e565b840191505092915050565b60006040820190508181036000830152613f728185613f1f565b90508181036020830152613f868184613f1f565b90509392505050565b600060ff82169050919050565b613fa581613f8f565b82525050565b600081519050919050565b600082825260208201905092915050565b6000819050602082019050919050565b6000819050919050565b613fea81613fd7565b82525050565b6000613ffc8383613fe1565b60208301905092915050565b6000602082019050919050565b600061402082613fab565b61402a8185613fb6565b935061403583613fc7565b8060005b8381101561406657815161404d8882613ff0565b975061405883614008565b925050600181019050614039565b5085935050505092915050565b600081519050919050565b600082825260208201905092915050565b6000819050602082019050919050565b6140a881613e5d565b82525050565b60006140ba838361409f565b60208301905092915050565b6000602082019050919050565b60006140de82614073565b6140e8818561407e565b93506140f38361408f565b8060005b8381101561412457815161410b88826140ae565b9750614116836140c6565b9250506001810190506140f7565b5085935050505092915050565b6000608082019050818103600083015261414b8187613f1f565b905061415a6020830186613f9c565b818103604083015261416c8185614015565b9050818103606083015261418081846140d3565b905095945050505050565b600080fd5b600080fd5b7f4e487b7100000000000000000000000000000000000000000000000000000000600052604160045260246000fd5b6141cd82613f0e565b810181811067ffffffffffffffff821117156141ec576141eb614195565b5b80604052505050565b60006141ff613e29565b905061420b82826141c4565b919050565b600067ffffffffffffffff82111561422b5761422a614195565b5b61423482613f0e565b9050602081019050919050565b82818337600083830152505050565b600061426361425e84614210565b6141f5565b90508281526020810184848401111561427f5761427e614190565b5b61428a848285614241565b509392505050565b600082601f8301126142a7576142a661418b565b5b81356142b7848260208601614250565b91505092915050565b6000602082840312156142d6576142d5613e33565b5b600082013567ffffffffffffffff8111156142f4576142f3613e38565b5b61430084828501614292565b91505092915050565b61431281613f8f565b811461431d57600080fd5b50565b60008135905061432f81614309565b92915050565b6000806040838503121561434c5761434b613e33565b5b600083013567ffffffffffffffff81111561436a57614369613e38565b5b61437685828601614292565b925050602061438785828601614320565b9150509250929050565b61439a81613fd7565b81146143a557600080fd5b50565b6000813590506143b781614391565b92915050565b6000806000606084860312156143d6576143d5613e33565b5b60006143e486828701613e86565b93505060206143f586828701613e86565b9250506040614406868287016143a8565b9150509250925092565b6000806000806080858703121561442a57614429613e33565b5b600085013567ffffffffffffffff81111561444857614447613e38565b5b61445487828801614292565b945050602085013567ffffffffffffffff81111561447557614474613e38565b5b61448187828801614292565b9350506040614492878288016143a8565b925050606085013567ffffffffffffffff8111156144b3576144b2613e38565b5b6144bf87828801614292565b91505092959194509250565b600080604083850312156144e2576144e1613e33565b5b60006144f085828601613e86565b9250506020614501858286016143a8565b9150509250929050565b600060408201905081810360008301526145258185613f1f565b9050818103602083015261453981846140d3565b90509392505050565b6000806000806080858703121561455c5761455b613e33565b5b600061456a878288016143a8565b945050602085013567ffffffffffffffff81111561458b5761458a613e38565b5b61459787828801614292565b93505060406145a887828801613e86565b92505060606145b987828801613e86565b91505092959194509250565b600060208201905081810360008301526145df8184613f1f565b905092915050565b6145f081613e5d565b82525050565b600060808201905081810360008301526146108187613f1f565b905061461f6020830186613f9c565b61462c60408301856145e7565b818103606083015261463e8184614015565b905095945050505050565b7f4e487b7100000000000000000000000000000000000000000000000000000000600052602260045260246000fd5b6000600282049050600182168061469057607f821691505b6020821081036146a3576146a2614649565b5b50919050565b600081905092915050565b60006146bf82613ec8565b6146c981856146a9565b93506146d9818560208601613ee4565b80840191505092915050565b60006146f182846146b4565b915081905092915050565b60008190508160005260206000209050919050565b60006020601f8301049050919050565b600082821b905092915050565b60006008830261475e7fffffffffffffffffffffffffffffffffffffffffffffffffffffffffffffffff82614721565b6147688683614721565b95508019841693508086168417925050509392505050565b6000819050919050565b6000819050919050565b60006147af6147aa6147a584614780565b61478a565b614780565b9050919050565b6000819050919050565b6147c983614794565b6147dd6147d5826147b6565b84845461472e565b825550505050565b600090565b6147f26147e5565b6147fd8184846147c0565b505050565b5b81811015614821576148166000826147ea565b600181019050614803565b5050565b601f82111561486657614837816146fc565b61484084614711565b8101602085101561484f578190505b61486361485b85614711565b830182614802565b50505b505050565b600082821c905092915050565b60006148896000198460080261486b565b1980831691505092915050565b60006148a28383614878565b9150826002028217905092915050565b6148bb82613ec8565b67ffffffffffffffff8111156148d4576148d3614195565b5b6148de8254614678565b6148e9828285614825565b600060209050601f83116001811461491c576000841561490a578287015190505b6149148582614896565b86555061497c565b601f19841661492a866146fc565b60005b828110156149525784890151825560018201915060208501945060208101905061492d565b8683101561496f578489015161496b601f891682614878565b8355505b6001600288020188555050505b50505050505056fea26469706673582212202fa2905744414f1b5ac9f11eeb02f07688c79c1b9ce736eefeade0f00f60023164736f6c63430008120033",
  "immutableReferences": {},
  "source": "//SPDX-License-Identifier: MIT\r\npragma solidity ^0.8.11;\r\n\r\ncontract HealthCare1 {\r\n  address private owner;\r\n  mapping (address => doctor) private doctors;// doctor and list of patient profile he can access\r\n  mapping (address => mapping(address => uint)) private doctorToPatient;\r\n  mapping (address => patient) private patients;\r\n  mapping (address => mapping (address => uint)) private patientToDoctor;\r\n  mapping (bytes32 => filesInfo) private hashToFile; //filehash to file info\r\n  mapping (address => mapping (bytes32 => uint)) private patientToFile;\r\n  uint private gpos;\r\n  \r\n  struct filesInfo {\r\n      string file_name;\r\n      string file_type;\r\n      string file_secret;\r\n  }\r\n  \r\n  struct patient {\r\n      string name;\r\n      uint8 age;\r\n      address id;\r\n      bytes32[] files;// hashes of file that belong to this user for display purpose\r\n      address[] doctor_list;\r\n  }\r\n  \r\n  struct doctor {\r\n      string name;\r\n      address id;\r\n      address[] patient_list;\r\n  }\r\n  \r\n  constructor() {\r\n    owner = msg.sender;\r\n  }\r\n  \r\n  modifier checkDoctor(address id) {\r\n    doctor memory d = doctors[id];\r\n    require(d.id > address(0x0));//check if doctor exist\r\n    _;\r\n  }\r\n  \r\n  modifier checkPatient(address id) {\r\n    patient memory p = patients[id];\r\n    require(p.id > address(0x0));//check if patient exist\r\n    _;\r\n  }\r\n  \r\n  modifier onlyOwner() {\r\n    require(msg.sender == owner);\r\n    _;\r\n  }\r\n  \r\n  modifier checkFileAccess(string memory role, address id, bytes32 fileHashId, address pat) {\r\n    uint pos;\r\n    if(keccak256(abi.encodePacked(role)) == keccak256(\"doctor\")) {\r\n        require(patientToDoctor[pat][id] > 0);\r\n        pos = patientToFile[pat][fileHashId];\r\n        require(pos > 0);   \r\n    }\r\n    else if(keccak256(abi.encodePacked(role)) == keccak256(\"patient\")) {\r\n        pos = patientToFile[id][fileHashId];\r\n        require(pos > 0);\r\n    }\r\n    _; \r\n  }\r\n  \r\n  modifier checkFile(bytes32 fileHashId) {\r\n    bytes memory tempString = bytes(hashToFile[fileHashId].file_name);\r\n    require(tempString.length > 0);//check if file exist\r\n    _;\r\n  }\r\n\r\n  function signupPatient(string memory _name, uint8 _age) public {\r\n     patient memory p = patients[msg.sender];\r\n     require(keccak256(abi.encodePacked(_name)) != keccak256(\"\"));\r\n     require((_age > 0) && (_age < 100));\r\n     require(!(p.id > address(0x0)));\r\n\r\n     patients[msg.sender] = patient({name:_name,age:_age,id:msg.sender,files:new bytes32[](0),doctor_list:new address[](0)});\r\n  }\r\n  \r\n  function signupDoctor(string memory _name) public {\r\n      doctor memory d = doctors[msg.sender];\r\n      require(keccak256(abi.encodePacked(_name)) != keccak256(\"\"));\r\n      require(!(d.id > address(0x0)));\r\n\r\n      doctors[msg.sender] = doctor({name:_name,id:msg.sender,patient_list:new address[](0)});\r\n  }\r\n  \r\n  function grantAccessToDoctor(address doctor_id) public checkPatient(msg.sender) checkDoctor(doctor_id) {\r\n      patient storage p = patients[msg.sender];\r\n      doctor storage d = doctors[doctor_id];\r\n      require(patientToDoctor[msg.sender][doctor_id] < 1);// this means doctor already been access\r\n      \r\n      p.doctor_list.push(doctor_id);// new length of array\r\n\t  uint pos = p.doctor_list.length;\r\n      gpos = pos;\r\n      patientToDoctor[msg.sender][doctor_id] = pos;\r\n      d.patient_list.push(msg.sender);\r\n  }\r\n  \r\n  function addFile(string memory _file_name, string memory _file_type, bytes32 _fileHash, string memory _file_secret) public checkPatient(msg.sender) {\r\n      patient storage p = patients[msg.sender];\r\n\r\n      require(patientToFile[msg.sender][_fileHash] < 1);\r\n      \r\n      hashToFile[_fileHash] = filesInfo({file_name:_file_name, file_type:_file_type,file_secret:_file_secret});\r\n      p.files.push(_fileHash);\r\n\t  uint pos = p.files.length;\r\n      patientToFile[msg.sender][_fileHash] = pos;\r\n  }\r\n  \r\n  function getPatientInfo() public view checkPatient(msg.sender) returns(string memory, uint8, bytes32[] memory , address[] memory) {\r\n      patient memory p = patients[msg.sender];\r\n      return (p.name, p.age, p.files, p.doctor_list);\r\n  }\r\n  \r\n  function getDoctorInfo() public view checkDoctor(msg.sender) returns(string memory, address[] memory){\r\n      doctor memory d = doctors[msg.sender];\r\n      return (d.name, d.patient_list);\r\n  }\r\n  \r\n  function checkProfile(address _user) public view onlyOwner returns(string memory, string memory){\r\n      patient memory p = patients[_user];\r\n      doctor memory d = doctors[_user];\r\n      \r\n      if(p.id > address(0x0))\r\n          return (p.name, 'patient');\r\n      else if(d.id > address(0x0))\r\n          return (d.name, 'doctor');\r\n      else\r\n          return ('', '');\r\n  }\r\n  \r\n  function getPatientInfoForDoctor(address pat) public view checkPatient(pat) checkDoctor(msg.sender) returns(string memory, uint8, address, bytes32[] memory){\r\n      patient memory p = patients[pat];\r\n\r\n      require(patientToDoctor[pat][msg.sender] > 0);\r\n\r\n      return (p.name, p.age, p.id, p.files);\r\n  }\r\n  \r\n  function getFileInfo(bytes32 fileHashId) private view checkFile(fileHashId) returns(filesInfo memory) {\r\n      return hashToFile[fileHashId];\r\n  }\r\n  \r\n  function getFileSecret(bytes32 fileHashId, string memory role, address id, address pat) public view \r\n  checkFile(fileHashId) checkFileAccess(role, id, fileHashId, pat)\r\n  returns(string memory) {\r\n      filesInfo memory f = getFileInfo(fileHashId);\r\n      return (f.file_secret);\r\n  }\r\n\r\n  function getFileInfoDoctor(address doc, address pat, bytes32 fileHashId) public view \r\n  onlyOwner checkPatient(pat) checkDoctor(doc) checkFileAccess(\"doctor\", doc, fileHashId, pat)\r\n  returns(string memory, string memory) {\r\n      filesInfo memory f = getFileInfo(fileHashId);\r\n      return (f.file_name, f.file_type);\r\n  }\r\n  \r\n  function getFileInfoPatient(address pat, bytes32 fileHashId) public view \r\n  onlyOwner checkPatient(pat) checkFileAccess(\"patient\", pat, fileHashId, pat) returns(string memory, string memory) {\r\n      filesInfo memory f = getFileInfo(fileHashId);\r\n      return (f.file_name, f.file_type);\r\n  }\r\n  \r\n}",
  "sourcePath": "C:\\Users\\Hp\\Desktop\\blockchain\\contracts\\optimized_healthCare.sol",
  "compiler": {
    "name": "solc",
    "version": "0.8.18+commit.87f61d96.Emscripten.clang"
  },
  "schemaVersion": "3.4.13",
  "updatedAt": "2023-05-02T10:34:44.033Z",
  "devdoc": {
    "kind": "dev",
    "methods": {},
    "version": 1
  },
  "userdoc": {
    "kind": "user",
    "methods": {},
    "version": 1
  }
}