{
  "contractName": "HealthCare",
  "abi": [
    {
      "inputs": [],
      "stateMutability": "nonpayable",
      "type": "constructor"
    },
    {
      "inputs": [],
      "name": "getDoctorInfo",
      "outputs": [
        {
          "internalType": "string",
          "name": "",
          "type": "string"
        },
        {
          "internalType": "address[]",
          "name": "",
          "type": "address[]"
        }
      ],
      "stateMutability": "view",
      "type": "function"
    },
    {
      "inputs": [],
      "name": "getPatientInfo",
      "outputs": [
        {
          "internalType": "string",
          "name": "",
          "type": "string"
        },
        {
          "internalType": "uint8",
          "name": "",
          "type": "uint8"
        },
        {
          "internalType": "bytes32[]",
          "name": "",
          "type": "bytes32[]"
        },
        {
          "internalType": "address[]",
          "name": "",
          "type": "address[]"
        }
      ],
      "stateMutability": "view",
      "type": "function"
    },
    {
      "inputs": [
        {
          "internalType": "string",
          "name": "_name",
          "type": "string"
        }
      ],
      "name": "signupDoctor",
      "outputs": [],
      "stateMutability": "nonpayable",
      "type": "function"
    },
    {
      "inputs": [
        {
          "internalType": "string",
          "name": "_name",
          "type": "string"
        },
        {
          "internalType": "uint8",
          "name": "_age",
          "type": "uint8"
        }
      ],
      "name": "signupPatient",
      "outputs": [],
      "stateMutability": "nonpayable",
      "type": "function"
    },
    {
      "inputs": [
        {
          "internalType": "address",
          "name": "_user",
          "type": "address"
        }
      ],
      "name": "checkProfile",
      "outputs": [
        {
          "internalType": "string",
          "name": "",
          "type": "string"
        },
        {
          "internalType": "string",
          "name": "",
          "type": "string"
        }
      ],
      "stateMutability": "view",
      "type": "function"
    },
    {
      "inputs": [
        {
          "internalType": "address",
          "name": "doctor_id",
          "type": "address"
        }
      ],
      "name": "grantAccessToDoctor",
      "outputs": [],
      "stateMutability": "nonpayable",
      "type": "function"
    },
    {
      "inputs": [
        {
          "internalType": "string",
          "name": "_file_name",
          "type": "string"
        },
        {
          "internalType": "string",
          "name": "_file_type",
          "type": "string"
        },
        {
          "internalType": "bytes32",
          "name": "_fileHash",
          "type": "bytes32"
        },
        {
          "internalType": "string",
          "name": "_file_secret",
          "type": "string"
        }
      ],
      "name": "addFile",
      "outputs": [],
      "stateMutability": "nonpayable",
      "type": "function"
    },
    {
      "inputs": [
        {
          "internalType": "address",
          "name": "pat",
          "type": "address"
        }
      ],
      "name": "getPatientInfoForDoctor",
      "outputs": [
        {
          "internalType": "string",
          "name": "",
          "type": "string"
        },
        {
          "internalType": "uint8",
          "name": "",
          "type": "uint8"
        },
        {
          "internalType": "address",
          "name": "",
          "type": "address"
        },
        {
          "internalType": "bytes32[]",
          "name": "",
          "type": "bytes32[]"
        }
      ],
      "stateMutability": "view",
      "type": "function"
    },
    {
      "inputs": [
        {
          "internalType": "bytes32",
          "name": "fileHashId",
          "type": "bytes32"
        },
        {
          "internalType": "string",
          "name": "role",
          "type": "string"
        },
        {
          "internalType": "address",
          "name": "id",
          "type": "address"
        },
        {
          "internalType": "address",
          "name": "pat",
          "type": "address"
        }
      ],
      "name": "getFileSecret",
      "outputs": [
        {
          "internalType": "string",
          "name": "",
          "type": "string"
        }
      ],
      "stateMutability": "view",
      "type": "function"
    },
    {
      "inputs": [
        {
          "internalType": "address",
          "name": "doc",
          "type": "address"
        },
        {
          "internalType": "address",
          "name": "pat",
          "type": "address"
        },
        {
          "internalType": "bytes32",
          "name": "fileHashId",
          "type": "bytes32"
        }
      ],
      "name": "getFileInfoDoctor",
      "outputs": [
        {
          "internalType": "string",
          "name": "",
          "type": "string"
        },
        {
          "internalType": "string",
          "name": "",
          "type": "string"
        }
      ],
      "stateMutability": "view",
      "type": "function"
    },
    {
      "inputs": [
        {
          "internalType": "address",
          "name": "pat",
          "type": "address"
        },
        {
          "internalType": "bytes32",
          "name": "fileHashId",
          "type": "bytes32"
        }
      ],
      "name": "getFileInfoPatient",
      "outputs": [
        {
          "internalType": "string",
          "name": "",
          "type": "string"
        },
        {
          "internalType": "string",
          "name": "",
          "type": "string"
        }
      ],
      "stateMutability": "view",
      "type": "function"
    }
  ],
  "bytecode": "0x608060405234801561001057600080fd5b5033600660006101000a81548173ffffffffffffffffffffffffffffffffffffffff021916908373ffffffffffffffffffffffffffffffffffffffff1602179055506149b0806100616000396000f3fe608060405234801561001057600080fd5b50600436106100a95760003560e01c80637f34cf94116100715780637f34cf94146101545780639f6a7a1114610185578063b259832d146101a1578063b380f5c6146101d2578063cf954d45146101f1578063fe59cc1a14610221576100a9565b806301d99258146100ae5780631c8e251c146100df578063326df664146100fb5780636459d52f1461011c5780637120203a14610138575b600080fd5b6100c860048036038101906100c39190613e91565b610254565b6040516100d6929190613f4e565b60405180910390f35b6100f960048036038101906100f49190613e91565b6107d7565b005b610103610ebe565b6040516101139493929190614127565b60405180910390f35b610136600480360381019061013191906142b6565b61139a565b005b610152600480360381019061014d919061432b565b611726565b005b61016e600480360381019061016991906143b3565b611bdf565b60405161017c929190613f4e565b60405180910390f35b61019f600480360381019061019a9190614406565b612306565b005b6101bb60048036038101906101b691906144c1565b612726565b6040516101c9929190613f4e565b60405180910390f35b6101da612c49565b6040516101e8929190614501565b60405180910390f35b61020b60048036038101906102069190614538565b613025565b60405161021891906145bb565b60405180910390f35b61023b60048036038101906102369190613e91565b6132ed565b60405161024b94939291906145ec565b60405180910390f35b606080600660009054906101000a900473ffffffffffffffffffffffffffffffffffffffff1673ffffffffffffffffffffffffffffffffffffffff163373ffffffffffffffffffffffffffffffffffffffff16146102b157600080fd5b6000600260008573ffffffffffffffffffffffffffffffffffffffff1673ffffffffffffffffffffffffffffffffffffffff1681526020019081526020016000206040518060a001604052908160008201805461030d9061466e565b80601f01602080910402602001604051908101604052809291908181526020018280546103399061466e565b80156103865780601f1061035b57610100808354040283529160200191610386565b820191906000526020600020905b81548152906001019060200180831161036957829003601f168201915b505050505081526020016001820160009054906101000a900460ff1660ff1660ff1681526020016001820160019054906101000a900473ffffffffffffffffffffffffffffffffffffffff1673ffffffffffffffffffffffffffffffffffffffff1673ffffffffffffffffffffffffffffffffffffffff1681526020016002820180548060200260200160405190810160405280929190818152602001828054801561045157602002820191906000526020600020905b81548152602001906001019080831161043d575b50505050508152602001600382018054806020026020016040519081016040528092919081815260200182805480156104df57602002820191906000526020600020905b8160009054906101000a900473ffffffffffffffffffffffffffffffffffffffff1673ffffffffffffffffffffffffffffffffffffffff1681526020019060010190808311610495575b505050505081525050905060008060008673ffffffffffffffffffffffffffffffffffffffff1673ffffffffffffffffffffffffffffffffffffffff1681526020019081526020016000206040518060600160405290816000820180546105459061466e565b80601f01602080910402602001604051908101604052809291908181526020018280546105719061466e565b80156105be5780601f10610593576101008083540402835291602001916105be565b820191906000526020600020905b8154815290600101906020018083116105a157829003601f168201915b505050505081526020016001820160009054906101000a900473ffffffffffffffffffffffffffffffffffffffff1673ffffffffffffffffffffffffffffffffffffffff1673ffffffffffffffffffffffffffffffffffffffff168152602001600282018054806020026020016040519081016040528092919081815260200182805480156106a257602002820191906000526020600020905b8160009054906101000a900473ffffffffffffffffffffffffffffffffffffffff1673ffffffffffffffffffffffffffffffffffffffff1681526020019060010190808311610658575b5050505050815250509050600073ffffffffffffffffffffffffffffffffffffffff16826040015173ffffffffffffffffffffffffffffffffffffffff16111561072c5781600001516040518060400160405280600781526020017f70617469656e74000000000000000000000000000000000000000000000000008152509350935050506107d2565b600073ffffffffffffffffffffffffffffffffffffffff16816020015173ffffffffffffffffffffffffffffffffffffffff1611156107ab5780600001516040518060400160405280600681526020017f646f63746f7200000000000000000000000000000000000000000000000000008152509350935050506107d2565b60405180602001604052806000815250604051806020016040528060008152509350935050505b915091565b336000600260008373ffffffffffffffffffffffffffffffffffffffff1673ffffffffffffffffffffffffffffffffffffffff1681526020019081526020016000206040518060a00160405290816000820180546108349061466e565b80601f01602080910402602001604051908101604052809291908181526020018280546108609061466e565b80156108ad5780601f10610882576101008083540402835291602001916108ad565b820191906000526020600020905b81548152906001019060200180831161089057829003601f168201915b505050505081526020016001820160009054906101000a900460ff1660ff1660ff1681526020016001820160019054906101000a900473ffffffffffffffffffffffffffffffffffffffff1673ffffffffffffffffffffffffffffffffffffffff1673ffffffffffffffffffffffffffffffffffffffff1681526020016002820180548060200260200160405190810160405280929190818152602001828054801561097857602002820191906000526020600020905b815481526020019060010190808311610964575b5050505050815260200160038201805480602002602001604051908101604052809291908181526020018280548015610a0657602002820191906000526020600020905b8160009054906101000a900473ffffffffffffffffffffffffffffffffffffffff1673ffffffffffffffffffffffffffffffffffffffff16815260200190600101908083116109bc575b5050505050815250509050600073ffffffffffffffffffffffffffffffffffffffff16816040015173ffffffffffffffffffffffffffffffffffffffff1611610a4e57600080fd5b8260008060008373ffffffffffffffffffffffffffffffffffffffff1673ffffffffffffffffffffffffffffffffffffffff168152602001908152602001600020604051806060016040529081600082018054610aaa9061466e565b80601f0160208091040260200160405190810160405280929190818152602001828054610ad69061466e565b8015610b235780601f10610af857610100808354040283529160200191610b23565b820191906000526020600020905b815481529060010190602001808311610b0657829003601f168201915b505050505081526020016001820160009054906101000a900473ffffffffffffffffffffffffffffffffffffffff1673ffffffffffffffffffffffffffffffffffffffff1673ffffffffffffffffffffffffffffffffffffffff16815260200160028201805480602002602001604051908101604052809291908181526020018280548015610c0757602002820191906000526020600020905b8160009054906101000a900473ffffffffffffffffffffffffffffffffffffffff1673ffffffffffffffffffffffffffffffffffffffff1681526020019060010190808311610bbd575b5050505050815250509050600073ffffffffffffffffffffffffffffffffffffffff16816020015173ffffffffffffffffffffffffffffffffffffffff1611610c4f57600080fd5b6000600260003373ffffffffffffffffffffffffffffffffffffffff1673ffffffffffffffffffffffffffffffffffffffff168152602001908152602001600020905060008060008873ffffffffffffffffffffffffffffffffffffffff1673ffffffffffffffffffffffffffffffffffffffff16815260200190815260200160002090506001600360003373ffffffffffffffffffffffffffffffffffffffff1673ffffffffffffffffffffffffffffffffffffffff16815260200190815260200160002060008973ffffffffffffffffffffffffffffffffffffffff1673ffffffffffffffffffffffffffffffffffffffff1681526020019081526020016000205410610d5d57600080fd5b81600301879080600181540180825580915050600190039060005260206000200160009091909190916101000a81548173ffffffffffffffffffffffffffffffffffffffff021916908373ffffffffffffffffffffffffffffffffffffffff16021790555060008260030180549050905080600360003373ffffffffffffffffffffffffffffffffffffffff1673ffffffffffffffffffffffffffffffffffffffff16815260200190815260200160002060008a73ffffffffffffffffffffffffffffffffffffffff1673ffffffffffffffffffffffffffffffffffffffff1681526020019081526020016000208190555081600201339080600181540180825580915050600190039060005260206000200160009091909190916101000a81548173ffffffffffffffffffffffffffffffffffffffff021916908373ffffffffffffffffffffffffffffffffffffffff1602179055505050505050505050565b60606000606080336000600260008373ffffffffffffffffffffffffffffffffffffffff1673ffffffffffffffffffffffffffffffffffffffff1681526020019081526020016000206040518060a0016040529081600082018054610f229061466e565b80601f0160208091040260200160405190810160405280929190818152602001828054610f4e9061466e565b8015610f9b5780601f10610f7057610100808354040283529160200191610f9b565b820191906000526020600020905b815481529060010190602001808311610f7e57829003601f168201915b505050505081526020016001820160009054906101000a900460ff1660ff1660ff1681526020016001820160019054906101000a900473ffffffffffffffffffffffffffffffffffffffff1673ffffffffffffffffffffffffffffffffffffffff1673ffffffffffffffffffffffffffffffffffffffff1681526020016002820180548060200260200160405190810160405280929190818152602001828054801561106657602002820191906000526020600020905b815481526020019060010190808311611052575b50505050508152602001600382018054806020026020016040519081016040528092919081815260200182805480156110f457602002820191906000526020600020905b8160009054906101000a900473ffffffffffffffffffffffffffffffffffffffff1673ffffffffffffffffffffffffffffffffffffffff16815260200190600101908083116110aa575b5050505050815250509050600073ffffffffffffffffffffffffffffffffffffffff16816040015173ffffffffffffffffffffffffffffffffffffffff161161113c57600080fd5b6000600260003373ffffffffffffffffffffffffffffffffffffffff1673ffffffffffffffffffffffffffffffffffffffff1681526020019081526020016000206040518060a00160405290816000820180546111989061466e565b80601f01602080910402602001604051908101604052809291908181526020018280546111c49061466e565b80156112115780601f106111e657610100808354040283529160200191611211565b820191906000526020600020905b8154815290600101906020018083116111f457829003601f168201915b505050505081526020016001820160009054906101000a900460ff1660ff1660ff1681526020016001820160019054906101000a900473ffffffffffffffffffffffffffffffffffffffff1673ffffffffffffffffffffffffffffffffffffffff1673ffffffffffffffffffffffffffffffffffffffff168152602001600282018054806020026020016040519081016040528092919081815260200182805480156112dc57602002820191906000526020600020905b8154815260200190600101908083116112c8575b505050505081526020016003820180548060200260200160405190810160405280929190818152602001828054801561136a57602002820191906000526020600020905b8160009054906101000a900473ffffffffffffffffffffffffffffffffffffffff1673ffffffffffffffffffffffffffffffffffffffff1681526020019060010190808311611320575b50505050508152505090508060000151816020015182606001518360800151965096509650965050505090919293565b60008060003373ffffffffffffffffffffffffffffffffffffffff1673ffffffffffffffffffffffffffffffffffffffff1681526020019081526020016000206040518060600160405290816000820180546113f59061466e565b80601f01602080910402602001604051908101604052809291908181526020018280546114219061466e565b801561146e5780601f106114435761010080835404028352916020019161146e565b820191906000526020600020905b81548152906001019060200180831161145157829003601f168201915b505050505081526020016001820160009054906101000a900473ffffffffffffffffffffffffffffffffffffffff1673ffffffffffffffffffffffffffffffffffffffff1673ffffffffffffffffffffffffffffffffffffffff1681526020016002820180548060200260200160405190810160405280929190818152602001828054801561155257602002820191906000526020600020905b8160009054906101000a900473ffffffffffffffffffffffffffffffffffffffff1673ffffffffffffffffffffffffffffffffffffffff1681526020019060010190808311611508575b50505050508152505090507fc5d2460186f7233c927e7db2dcc703c0e500b653ca82273b7bfad8045d85a4708260405160200161158f91906146db565b60405160208183030381529060405280519060200120036115af57600080fd5b600073ffffffffffffffffffffffffffffffffffffffff16816020015173ffffffffffffffffffffffffffffffffffffffff1611156115ed57600080fd5b60405180606001604052808381526020013373ffffffffffffffffffffffffffffffffffffffff168152602001600067ffffffffffffffff8111156116355761163461418b565b5b6040519080825280602002602001820160405280156116635781602001602082028036833780820191505090505b508152506000803373ffffffffffffffffffffffffffffffffffffffff1673ffffffffffffffffffffffffffffffffffffffff16815260200190815260200160002060008201518160000190816116ba91906148a8565b5060208201518160010160006101000a81548173ffffffffffffffffffffffffffffffffffffffff021916908373ffffffffffffffffffffffffffffffffffffffff160217905550604082015181600201908051906020019061171e929190613ced565b509050505050565b6000600260003373ffffffffffffffffffffffffffffffffffffffff1673ffffffffffffffffffffffffffffffffffffffff1681526020019081526020016000206040518060a00160405290816000820180546117829061466e565b80601f01602080910402602001604051908101604052809291908181526020018280546117ae9061466e565b80156117fb5780601f106117d0576101008083540402835291602001916117fb565b820191906000526020600020905b8154815290600101906020018083116117de57829003601f168201915b505050505081526020016001820160009054906101000a900460ff1660ff1660ff1681526020016001820160019054906101000a900473ffffffffffffffffffffffffffffffffffffffff1673ffffffffffffffffffffffffffffffffffffffff1673ffffffffffffffffffffffffffffffffffffffff168152602001600282018054806020026020016040519081016040528092919081815260200182805480156118c657602002820191906000526020600020905b8154815260200190600101908083116118b2575b505050505081526020016003820180548060200260200160405190810160405280929190818152602001828054801561195457602002820191906000526020600020905b8160009054906101000a900473ffffffffffffffffffffffffffffffffffffffff1673ffffffffffffffffffffffffffffffffffffffff168152602001906001019080831161190a575b50505050508152505090507fc5d2460186f7233c927e7db2dcc703c0e500b653ca82273b7bfad8045d85a4708360405160200161199191906146db565b60405160208183030381529060405280519060200120036119b157600080fd5b60008260ff161180156119c7575060648260ff16105b6119d057600080fd5b600073ffffffffffffffffffffffffffffffffffffffff16816040015173ffffffffffffffffffffffffffffffffffffffff161115611a0e57600080fd5b6040518060a001604052808481526020018360ff1681526020013373ffffffffffffffffffffffffffffffffffffffff168152602001600067ffffffffffffffff811115611a5f57611a5e61418b565b5b604051908082528060200260200182016040528015611a8d5781602001602082028036833780820191505090505b508152602001600067ffffffffffffffff811115611aae57611aad61418b565b5b604051908082528060200260200182016040528015611adc5781602001602082028036833780820191505090505b50815250600260003373ffffffffffffffffffffffffffffffffffffffff1673ffffffffffffffffffffffffffffffffffffffff1681526020019081526020016000206000820151816000019081611b3491906148a8565b5060208201518160010160006101000a81548160ff021916908360ff16021790555060408201518160010160016101000a81548173ffffffffffffffffffffffffffffffffffffffff021916908373ffffffffffffffffffffffffffffffffffffffff1602179055506060820151816002019080519060200190611bb9929190613d77565b506080820151816003019080519060200190611bd6929190613ced565b50905050505050565b606080600660009054906101000a900473ffffffffffffffffffffffffffffffffffffffff1673ffffffffffffffffffffffffffffffffffffffff163373ffffffffffffffffffffffffffffffffffffffff1614611c3c57600080fd5b836000600260008373ffffffffffffffffffffffffffffffffffffffff1673ffffffffffffffffffffffffffffffffffffffff1681526020019081526020016000206040518060a0016040529081600082018054611c999061466e565b80601f0160208091040260200160405190810160405280929190818152602001828054611cc59061466e565b8015611d125780601f10611ce757610100808354040283529160200191611d12565b820191906000526020600020905b815481529060010190602001808311611cf557829003601f168201915b505050505081526020016001820160009054906101000a900460ff1660ff1660ff1681526020016001820160019054906101000a900473ffffffffffffffffffffffffffffffffffffffff1673ffffffffffffffffffffffffffffffffffffffff1673ffffffffffffffffffffffffffffffffffffffff16815260200160028201805480602002602001604051908101604052809291908181526020018280548015611ddd57602002820191906000526020600020905b815481526020019060010190808311611dc9575b5050505050815260200160038201805480602002602001604051908101604052809291908181526020018280548015611e6b57602002820191906000526020600020905b8160009054906101000a900473ffffffffffffffffffffffffffffffffffffffff1673ffffffffffffffffffffffffffffffffffffffff1681526020019060010190808311611e21575b5050505050815250509050600073ffffffffffffffffffffffffffffffffffffffff16816040015173ffffffffffffffffffffffffffffffffffffffff1611611eb357600080fd5b8660008060008373ffffffffffffffffffffffffffffffffffffffff1673ffffffffffffffffffffffffffffffffffffffff168152602001908152602001600020604051806060016040529081600082018054611f0f9061466e565b80601f0160208091040260200160405190810160405280929190818152602001828054611f3b9061466e565b8015611f885780601f10611f5d57610100808354040283529160200191611f88565b820191906000526020600020905b815481529060010190602001808311611f6b57829003601f168201915b505050505081526020016001820160009054906101000a900473ffffffffffffffffffffffffffffffffffffffff1673ffffffffffffffffffffffffffffffffffffffff1673ffffffffffffffffffffffffffffffffffffffff1681526020016002820180548060200260200160405190810160405280929190818152602001828054801561206c57602002820191906000526020600020905b8160009054906101000a900473ffffffffffffffffffffffffffffffffffffffff1673ffffffffffffffffffffffffffffffffffffffff1681526020019060010190808311612022575b5050505050815250509050600073ffffffffffffffffffffffffffffffffffffffff16816020015173ffffffffffffffffffffffffffffffffffffffff16116120b457600080fd5b6040518060400160405280600681526020017f646f63746f72000000000000000000000000000000000000000000000000000081525089888a60007fec03945fa2196716a09674e2cd6a57153479ecb05ea91e189e2688f793ab53818560405160200161212191906146db565b604051602081830303815290604052805190602001200361222a576000600360008473ffffffffffffffffffffffffffffffffffffffff1673ffffffffffffffffffffffffffffffffffffffff16815260200190815260200160002060008673ffffffffffffffffffffffffffffffffffffffff1673ffffffffffffffffffffffffffffffffffffffff16815260200190815260200160002054116121c557600080fd5b600460008373ffffffffffffffffffffffffffffffffffffffff1673ffffffffffffffffffffffffffffffffffffffff16815260200190815260200160002060008481526020019081526020016000205490506000811161222557600080fd5b6122d9565b7fdc3b9d7fd28cfc7a70a999f2eb4b60672e6b88c8ed3280f4fb467b501b62b92e8560405160200161225c91906146db565b60405160208183030381529060405280519060200120036122d857600460008573ffffffffffffffffffffffffffffffffffffffff1673ffffffffffffffffffffffffffffffffffffffff1681526020019081526020016000206000848152602001908152602001600020549050600081116122d757600080fd5b5b5b60006122e48d613a56565b9050806000015181602001519b509b5050505050505050505050935093915050565b336000600260008373ffffffffffffffffffffffffffffffffffffffff1673ffffffffffffffffffffffffffffffffffffffff1681526020019081526020016000206040518060a00160405290816000820180546123639061466e565b80601f016020809104026020016040519081016040528092919081815260200182805461238f9061466e565b80156123dc5780601f106123b1576101008083540402835291602001916123dc565b820191906000526020600020905b8154815290600101906020018083116123bf57829003601f168201915b505050505081526020016001820160009054906101000a900460ff1660ff1660ff1681526020016001820160019054906101000a900473ffffffffffffffffffffffffffffffffffffffff1673ffffffffffffffffffffffffffffffffffffffff1673ffffffffffffffffffffffffffffffffffffffff168152602001600282018054806020026020016040519081016040528092919081815260200182805480156124a757602002820191906000526020600020905b815481526020019060010190808311612493575b505050505081526020016003820180548060200260200160405190810160405280929190818152602001828054801561253557602002820191906000526020600020905b8160009054906101000a900473ffffffffffffffffffffffffffffffffffffffff1673ffffffffffffffffffffffffffffffffffffffff16815260200190600101908083116124eb575b5050505050815250509050600073ffffffffffffffffffffffffffffffffffffffff16816040015173ffffffffffffffffffffffffffffffffffffffff161161257d57600080fd5b6000600260003373ffffffffffffffffffffffffffffffffffffffff1673ffffffffffffffffffffffffffffffffffffffff16815260200190815260200160002090506001600460003373ffffffffffffffffffffffffffffffffffffffff1673ffffffffffffffffffffffffffffffffffffffff1681526020019081526020016000206000878152602001908152602001600020541061261d57600080fd5b60405180606001604052808881526020018781526020018581525060056000878152602001908152602001600020600082015181600001908161266091906148a8565b50602082015181600101908161267691906148a8565b50604082015181600201908161268c91906148a8565b509050508060020185908060018154018082558091505060019003906000526020600020016000909190919091505560008160020180549050905080600460003373ffffffffffffffffffffffffffffffffffffffff1673ffffffffffffffffffffffffffffffffffffffff1681526020019081526020016000206000888152602001908152602001600020819055505050505050505050565b606080600660009054906101000a900473ffffffffffffffffffffffffffffffffffffffff1673ffffffffffffffffffffffffffffffffffffffff163373ffffffffffffffffffffffffffffffffffffffff161461278357600080fd5b836000600260008373ffffffffffffffffffffffffffffffffffffffff1673ffffffffffffffffffffffffffffffffffffffff1681526020019081526020016000206040518060a00160405290816000820180546127e09061466e565b80601f016020809104026020016040519081016040528092919081815260200182805461280c9061466e565b80156128595780601f1061282e57610100808354040283529160200191612859565b820191906000526020600020905b81548152906001019060200180831161283c57829003601f168201915b505050505081526020016001820160009054906101000a900460ff1660ff1660ff1681526020016001820160019054906101000a900473ffffffffffffffffffffffffffffffffffffffff1673ffffffffffffffffffffffffffffffffffffffff1673ffffffffffffffffffffffffffffffffffffffff1681526020016002820180548060200260200160405190810160405280929190818152602001828054801561292457602002820191906000526020600020905b815481526020019060010190808311612910575b50505050508152602001600382018054806020026020016040519081016040528092919081815260200182805480156129b257602002820191906000526020600020905b8160009054906101000a900473ffffffffffffffffffffffffffffffffffffffff1673ffffffffffffffffffffffffffffffffffffffff1681526020019060010190808311612968575b5050505050815250509050600073ffffffffffffffffffffffffffffffffffffffff16816040015173ffffffffffffffffffffffffffffffffffffffff16116129fa57600080fd5b6040518060400160405280600781526020017f70617469656e740000000000000000000000000000000000000000000000000081525086868860007fec03945fa2196716a09674e2cd6a57153479ecb05ea91e189e2688f793ab538185604051602001612a6791906146db565b6040516020818303038152906040528051906020012003612b70576000600360008473ffffffffffffffffffffffffffffffffffffffff1673ffffffffffffffffffffffffffffffffffffffff16815260200190815260200160002060008673ffffffffffffffffffffffffffffffffffffffff1673ffffffffffffffffffffffffffffffffffffffff1681526020019081526020016000205411612b0b57600080fd5b600460008373ffffffffffffffffffffffffffffffffffffffff1673ffffffffffffffffffffffffffffffffffffffff168152602001908152602001600020600084815260200190815260200160002054905060008111612b6b57600080fd5b612c1f565b7fdc3b9d7fd28cfc7a70a999f2eb4b60672e6b88c8ed3280f4fb467b501b62b92e85604051602001612ba291906146db565b6040516020818303038152906040528051906020012003612c1e57600460008573ffffffffffffffffffffffffffffffffffffffff1673ffffffffffffffffffffffffffffffffffffffff168152602001908152602001600020600084815260200190815260200160002054905060008111612c1d57600080fd5b5b5b6000612c2a8b613a56565b9050806000015181602001519950995050505050505050509250929050565b6060803360008060008373ffffffffffffffffffffffffffffffffffffffff1673ffffffffffffffffffffffffffffffffffffffff168152602001908152602001600020604051806060016040529081600082018054612ca89061466e565b80601f0160208091040260200160405190810160405280929190818152602001828054612cd49061466e565b8015612d215780601f10612cf657610100808354040283529160200191612d21565b820191906000526020600020905b815481529060010190602001808311612d0457829003601f168201915b505050505081526020016001820160009054906101000a900473ffffffffffffffffffffffffffffffffffffffff1673ffffffffffffffffffffffffffffffffffffffff1673ffffffffffffffffffffffffffffffffffffffff16815260200160028201805480602002602001604051908101604052809291908181526020018280548015612e0557602002820191906000526020600020905b8160009054906101000a900473ffffffffffffffffffffffffffffffffffffffff1673ffffffffffffffffffffffffffffffffffffffff1681526020019060010190808311612dbb575b5050505050815250509050600073ffffffffffffffffffffffffffffffffffffffff16816020015173ffffffffffffffffffffffffffffffffffffffff1611612e4d57600080fd5b60008060003373ffffffffffffffffffffffffffffffffffffffff1673ffffffffffffffffffffffffffffffffffffffff168152602001908152602001600020604051806060016040529081600082018054612ea89061466e565b80601f0160208091040260200160405190810160405280929190818152602001828054612ed49061466e565b8015612f215780601f10612ef657610100808354040283529160200191612f21565b820191906000526020600020905b815481529060010190602001808311612f0457829003601f168201915b505050505081526020016001820160009054906101000a900473ffffffffffffffffffffffffffffffffffffffff1673ffffffffffffffffffffffffffffffffffffffff1673ffffffffffffffffffffffffffffffffffffffff1681526020016002820180548060200260200160405190810160405280929190818152602001828054801561300557602002820191906000526020600020905b8160009054906101000a900473ffffffffffffffffffffffffffffffffffffffff1673ffffffffffffffffffffffffffffffffffffffff1681526020019060010190808311612fbb575b505050505081525050905080600001518160400151945094505050509091565b606084600060056000838152602001908152602001600020600001805461304b9061466e565b80601f01602080910402602001604051908101604052809291908181526020018280546130779061466e565b80156130c45780601f10613099576101008083540402835291602001916130c4565b820191906000526020600020905b8154815290600101906020018083116130a757829003601f168201915b5050505050905060008151116130d957600080fd5b8585888660007fec03945fa2196716a09674e2cd6a57153479ecb05ea91e189e2688f793ab53818560405160200161311191906146db565b604051602081830303815290604052805190602001200361321a576000600360008473ffffffffffffffffffffffffffffffffffffffff1673ffffffffffffffffffffffffffffffffffffffff16815260200190815260200160002060008673ffffffffffffffffffffffffffffffffffffffff1673ffffffffffffffffffffffffffffffffffffffff16815260200190815260200160002054116131b557600080fd5b600460008373ffffffffffffffffffffffffffffffffffffffff1673ffffffffffffffffffffffffffffffffffffffff16815260200190815260200160002060008481526020019081526020016000205490506000811161321557600080fd5b6132c9565b7fdc3b9d7fd28cfc7a70a999f2eb4b60672e6b88c8ed3280f4fb467b501b62b92e8560405160200161324c91906146db565b60405160208183030381529060405280519060200120036132c857600460008573ffffffffffffffffffffffffffffffffffffffff1673ffffffffffffffffffffffffffffffffffffffff1681526020019081526020016000206000848152602001908152602001600020549050600081116132c757600080fd5b5b5b60006132d48d613a56565b9050806040015198505050505050505050949350505050565b60606000806060846000600260008373ffffffffffffffffffffffffffffffffffffffff1673ffffffffffffffffffffffffffffffffffffffff1681526020019081526020016000206040518060a00160405290816000820180546133519061466e565b80601f016020809104026020016040519081016040528092919081815260200182805461337d9061466e565b80156133ca5780601f1061339f576101008083540402835291602001916133ca565b820191906000526020600020905b8154815290600101906020018083116133ad57829003601f168201915b505050505081526020016001820160009054906101000a900460ff1660ff1660ff1681526020016001820160019054906101000a900473ffffffffffffffffffffffffffffffffffffffff1673ffffffffffffffffffffffffffffffffffffffff1673ffffffffffffffffffffffffffffffffffffffff1681526020016002820180548060200260200160405190810160405280929190818152602001828054801561349557602002820191906000526020600020905b815481526020019060010190808311613481575b505050505081526020016003820180548060200260200160405190810160405280929190818152602001828054801561352357602002820191906000526020600020905b8160009054906101000a900473ffffffffffffffffffffffffffffffffffffffff1673ffffffffffffffffffffffffffffffffffffffff16815260200190600101908083116134d9575b5050505050815250509050600073ffffffffffffffffffffffffffffffffffffffff16816040015173ffffffffffffffffffffffffffffffffffffffff161161356b57600080fd5b3360008060008373ffffffffffffffffffffffffffffffffffffffff1673ffffffffffffffffffffffffffffffffffffffff1681526020019081526020016000206040518060600160405290816000820180546135c79061466e565b80601f01602080910402602001604051908101604052809291908181526020018280546135f39061466e565b80156136405780601f1061361557610100808354040283529160200191613640565b820191906000526020600020905b81548152906001019060200180831161362357829003601f168201915b505050505081526020016001820160009054906101000a900473ffffffffffffffffffffffffffffffffffffffff1673ffffffffffffffffffffffffffffffffffffffff1673ffffffffffffffffffffffffffffffffffffffff1681526020016002820180548060200260200160405190810160405280929190818152602001828054801561372457602002820191906000526020600020905b8160009054906101000a900473ffffffffffffffffffffffffffffffffffffffff1673ffffffffffffffffffffffffffffffffffffffff16815260200190600101908083116136da575b5050505050815250509050600073ffffffffffffffffffffffffffffffffffffffff16816020015173ffffffffffffffffffffffffffffffffffffffff161161376c57600080fd5b6000600260008b73ffffffffffffffffffffffffffffffffffffffff1673ffffffffffffffffffffffffffffffffffffffff1681526020019081526020016000206040518060a00160405290816000820180546137c89061466e565b80601f01602080910402602001604051908101604052809291908181526020018280546137f49061466e565b80156138415780601f1061381657610100808354040283529160200191613841565b820191906000526020600020905b81548152906001019060200180831161382457829003601f168201915b505050505081526020016001820160009054906101000a900460ff1660ff1660ff1681526020016001820160019054906101000a900473ffffffffffffffffffffffffffffffffffffffff1673ffffffffffffffffffffffffffffffffffffffff1673ffffffffffffffffffffffffffffffffffffffff1681526020016002820180548060200260200160405190810160405280929190818152602001828054801561390c57602002820191906000526020600020905b8154815260200190600101908083116138f8575b505050505081526020016003820180548060200260200160405190810160405280929190818152602001828054801561399a57602002820191906000526020600020905b8160009054906101000a900473ffffffffffffffffffffffffffffffffffffffff1673ffffffffffffffffffffffffffffffffffffffff1681526020019060010190808311613950575b50505050508152505090506000600360008c73ffffffffffffffffffffffffffffffffffffffff1673ffffffffffffffffffffffffffffffffffffffff16815260200190815260200160002060003373ffffffffffffffffffffffffffffffffffffffff1673ffffffffffffffffffffffffffffffffffffffff1681526020019081526020016000205411613a2e57600080fd5b8060000151816020015182604001518360600151985098509850985050505050509193509193565b613a5e613dc4565b816000600560008381526020019081526020016000206000018054613a829061466e565b80601f0160208091040260200160405190810160405280929190818152602001828054613aae9061466e565b8015613afb5780601f10613ad057610100808354040283529160200191613afb565b820191906000526020600020905b815481529060010190602001808311613ade57829003601f168201915b505050505090506000815111613b1057600080fd5b60056000858152602001908152602001600020604051806060016040529081600082018054613b3e9061466e565b80601f0160208091040260200160405190810160405280929190818152602001828054613b6a9061466e565b8015613bb75780601f10613b8c57610100808354040283529160200191613bb7565b820191906000526020600020905b815481529060010190602001808311613b9a57829003601f168201915b50505050508152602001600182018054613bd09061466e565b80601f0160208091040260200160405190810160405280929190818152602001828054613bfc9061466e565b8015613c495780601f10613c1e57610100808354040283529160200191613c49565b820191906000526020600020905b815481529060010190602001808311613c2c57829003601f168201915b50505050508152602001600282018054613c629061466e565b80601f0160208091040260200160405190810160405280929190818152602001828054613c8e9061466e565b8015613cdb5780601f10613cb057610100808354040283529160200191613cdb565b820191906000526020600020905b815481529060010190602001808311613cbe57829003601f168201915b50505050508152505092505050919050565b828054828255906000526020600020908101928215613d66579160200282015b82811115613d655782518260006101000a81548173ffffffffffffffffffffffffffffffffffffffff021916908373ffffffffffffffffffffffffffffffffffffffff16021790555091602001919060010190613d0d565b5b509050613d739190613de5565b5090565b828054828255906000526020600020908101928215613db3579160200282015b82811115613db2578251825591602001919060010190613d97565b5b509050613dc09190613e02565b5090565b60405180606001604052806060815260200160608152602001606081525090565b5b80821115613dfe576000816000905550600101613de6565b5090565b5b80821115613e1b576000816000905550600101613e03565b5090565b6000604051905090565b600080fd5b600080fd5b600073ffffffffffffffffffffffffffffffffffffffff82169050919050565b6000613e5e82613e33565b9050919050565b613e6e81613e53565b8114613e7957600080fd5b50565b600081359050613e8b81613e65565b92915050565b600060208284031215613ea757613ea6613e29565b5b6000613eb584828501613e7c565b91505092915050565b600081519050919050565b600082825260208201905092915050565b60005b83811015613ef8578082015181840152602081019050613edd565b60008484015250505050565b6000601f19601f8301169050919050565b6000613f2082613ebe565b613f2a8185613ec9565b9350613f3a818560208601613eda565b613f4381613f04565b840191505092915050565b60006040820190508181036000830152613f688185613f15565b90508181036020830152613f7c8184613f15565b90509392505050565b600060ff82169050919050565b613f9b81613f85565b82525050565b600081519050919050565b600082825260208201905092915050565b6000819050602082019050919050565b6000819050919050565b613fe081613fcd565b82525050565b6000613ff28383613fd7565b60208301905092915050565b6000602082019050919050565b600061401682613fa1565b6140208185613fac565b935061402b83613fbd565b8060005b8381101561405c5781516140438882613fe6565b975061404e83613ffe565b92505060018101905061402f565b5085935050505092915050565b600081519050919050565b600082825260208201905092915050565b6000819050602082019050919050565b61409e81613e53565b82525050565b60006140b08383614095565b60208301905092915050565b6000602082019050919050565b60006140d482614069565b6140de8185614074565b93506140e983614085565b8060005b8381101561411a57815161410188826140a4565b975061410c836140bc565b9250506001810190506140ed565b5085935050505092915050565b600060808201905081810360008301526141418187613f15565b90506141506020830186613f92565b8181036040830152614162818561400b565b9050818103606083015261417681846140c9565b905095945050505050565b600080fd5b600080fd5b7f4e487b7100000000000000000000000000000000000000000000000000000000600052604160045260246000fd5b6141c382613f04565b810181811067ffffffffffffffff821117156141e2576141e161418b565b5b80604052505050565b60006141f5613e1f565b905061420182826141ba565b919050565b600067ffffffffffffffff8211156142215761422061418b565b5b61422a82613f04565b9050602081019050919050565b82818337600083830152505050565b600061425961425484614206565b6141eb565b90508281526020810184848401111561427557614274614186565b5b614280848285614237565b509392505050565b600082601f83011261429d5761429c614181565b5b81356142ad848260208601614246565b91505092915050565b6000602082840312156142cc576142cb613e29565b5b600082013567ffffffffffffffff8111156142ea576142e9613e2e565b5b6142f684828501614288565b91505092915050565b61430881613f85565b811461431357600080fd5b50565b600081359050614325816142ff565b92915050565b6000806040838503121561434257614341613e29565b5b600083013567ffffffffffffffff8111156143605761435f613e2e565b5b61436c85828601614288565b925050602061437d85828601614316565b9150509250929050565b61439081613fcd565b811461439b57600080fd5b50565b6000813590506143ad81614387565b92915050565b6000806000606084860312156143cc576143cb613e29565b5b60006143da86828701613e7c565b93505060206143eb86828701613e7c565b92505060406143fc8682870161439e565b9150509250925092565b600080600080608085870312156144205761441f613e29565b5b600085013567ffffffffffffffff81111561443e5761443d613e2e565b5b61444a87828801614288565b945050602085013567ffffffffffffffff81111561446b5761446a613e2e565b5b61447787828801614288565b93505060406144888782880161439e565b925050606085013567ffffffffffffffff8111156144a9576144a8613e2e565b5b6144b587828801614288565b91505092959194509250565b600080604083850312156144d8576144d7613e29565b5b60006144e685828601613e7c565b92505060206144f78582860161439e565b9150509250929050565b6000604082019050818103600083015261451b8185613f15565b9050818103602083015261452f81846140c9565b90509392505050565b6000806000806080858703121561455257614551613e29565b5b60006145608782880161439e565b945050602085013567ffffffffffffffff81111561458157614580613e2e565b5b61458d87828801614288565b935050604061459e87828801613e7c565b92505060606145af87828801613e7c565b91505092959194509250565b600060208201905081810360008301526145d58184613f15565b905092915050565b6145e681613e53565b82525050565b600060808201905081810360008301526146068187613f15565b90506146156020830186613f92565b61462260408301856145dd565b8181036060830152614634818461400b565b905095945050505050565b7f4e487b7100000000000000000000000000000000000000000000000000000000600052602260045260246000fd5b6000600282049050600182168061468657607f821691505b6020821081036146995761469861463f565b5b50919050565b600081905092915050565b60006146b582613ebe565b6146bf818561469f565b93506146cf818560208601613eda565b80840191505092915050565b60006146e782846146aa565b915081905092915050565b60008190508160005260206000209050919050565b60006020601f8301049050919050565b600082821b905092915050565b6000600883026147547fffffffffffffffffffffffffffffffffffffffffffffffffffffffffffffffff82614717565b61475e8683614717565b95508019841693508086168417925050509392505050565b6000819050919050565b6000819050919050565b60006147a56147a061479b84614776565b614780565b614776565b9050919050565b6000819050919050565b6147bf8361478a565b6147d36147cb826147ac565b848454614724565b825550505050565b600090565b6147e86147db565b6147f38184846147b6565b505050565b5b818110156148175761480c6000826147e0565b6001810190506147f9565b5050565b601f82111561485c5761482d816146f2565b61483684614707565b81016020851015614845578190505b61485961485185614707565b8301826147f8565b50505b505050565b600082821c905092915050565b600061487f60001984600802614861565b1980831691505092915050565b6000614898838361486e565b9150826002028217905092915050565b6148b182613ebe565b67ffffffffffffffff8111156148ca576148c961418b565b5b6148d4825461466e565b6148df82828561481b565b600060209050601f8311600181146149125760008415614900578287015190505b61490a858261488c565b865550614972565b601f198416614920866146f2565b60005b8281101561494857848901518255600182019150602085019450602081019050614923565b868310156149655784890151614961601f89168261486e565b8355505b6001600288020188555050505b50505050505056fea2646970667358221220a0b21c1c7437363e9eb71f855faaf180a06f2139ac3a019ac9caa3f26f57eeb164736f6c63430008120033",
  "immutableReferences": {},
  "source": "//SPDX-License-Identifier: MIT  \r\npragma solidity ^0.8.11;  \r\n\r\nimport \"./doctor.sol\";\r\nimport \"./patient.sol\";\r\nimport \"./file.sol\";\r\n\r\ncontract HealthCare is Doctor, Patient, File {\r\n    address private owner;\r\n    \r\n    // function HealthCare() {\r\n    //     owner = msg.sender;\r\n    // }\r\n\r\n\tconstructor() {\r\n\t\towner = msg.sender;\r\n\t}\r\n    \r\n    modifier onlyOwner() {\r\n        require(msg.sender == owner);\r\n        _;\r\n    }\r\n    \r\n    modifier checkFileAccess(string memory role, address id, bytes32 fileHashId, address pat) {\r\n        uint pos;\r\n        if(keccak256(abi.encodePacked(role)) == keccak256(\"doctor\")) {\r\n            require(patientToDoctor[pat][id] > 0);\r\n            pos = patientToFile[pat][fileHashId];\r\n            require(pos > 0);   \r\n        }\r\n        else if(keccak256(abi.encodePacked(role)) == keccak256(\"patient\")) {\r\n            pos = patientToFile[id][fileHashId];\r\n            require(pos > 0);\r\n        }\r\n        _; \r\n    }\r\n    \r\n    function checkProfile(address _user) public view onlyOwner returns(string memory, string memory){\r\n        patient memory p = patients[_user];\r\n        doctor memory d = doctors[_user];\r\n          \r\n        if(p.id > address(0x0))\r\n            return (p.name, 'patient');\r\n        else if(d.id > address(0x0))\r\n            return (d.name, 'doctor');\r\n        else\r\n            return ('', '');\r\n    }\r\n  \r\n    function grantAccessToDoctor(address doctor_id) public checkPatient(msg.sender) checkDoctor(doctor_id) {\r\n        patient storage p = patients[msg.sender];\r\n        doctor storage d = doctors[doctor_id];\r\n        require(patientToDoctor[msg.sender][doctor_id] < 1);// this means doctor already been access\r\n      \r\n        p.doctor_list.push(doctor_id);// new length of array\r\n\t\tuint pos = p.doctor_list.length;\r\n\r\n        patientToDoctor[msg.sender][doctor_id] = pos;\r\n        d.patient_list.push(msg.sender);\r\n    }\r\n  \r\n    function addFile(string memory _file_name, string memory _file_type, bytes32 _fileHash, string memory _file_secret) public checkPatient(msg.sender) {\r\n        patient storage p = patients[msg.sender];\r\n\r\n        require(patientToFile[msg.sender][_fileHash] < 1);\r\n      \r\n        hashToFile[_fileHash] = filesInfo({file_name:_file_name, file_type:_file_type,file_secret:_file_secret});\r\n        p.files.push(_fileHash);\r\n\t\tuint pos = p.files.length;\r\n        patientToFile[msg.sender][_fileHash] = pos;\r\n    }\r\n    \r\n    function getPatientInfoForDoctor(address pat) public view checkPatient(pat) checkDoctor(msg.sender) returns(string memory, uint8, address, bytes32[] memory){\r\n        patient memory p = patients[pat];\r\n\r\n        require(patientToDoctor[pat][msg.sender] > 0);\r\n\r\n        return (p.name, p.age, p.id, p.files);\r\n    }\r\n    \r\n    function getFileSecret(bytes32 fileHashId, string memory role, address id, address pat) public view \r\n    checkFile(fileHashId) checkFileAccess(role, id, fileHashId, pat)\r\n    returns(string memory) {\r\n        filesInfo memory f = getFileInfo(fileHashId);\r\n        return (f.file_secret);\r\n    }\r\n\r\n    function getFileInfoDoctor(address doc, address pat, bytes32 fileHashId) public view \r\n    onlyOwner checkPatient(pat) checkDoctor(doc) checkFileAccess(\"doctor\", doc, fileHashId, pat)\r\n    returns(string memory, string memory) {\r\n        filesInfo memory f = getFileInfo(fileHashId);\r\n        return (f.file_name, f.file_type);\r\n    }\r\n  \r\n    function getFileInfoPatient(address pat, bytes32 fileHashId) public view \r\n    onlyOwner checkPatient(pat) checkFileAccess(\"patient\", pat, fileHashId, pat) returns(string memory, string memory) {\r\n        filesInfo memory f = getFileInfo(fileHashId);\r\n        return (f.file_name, f.file_type);\r\n    }\r\n  \r\n}",
  "sourcePath": "C:\\Users\\Hp\\Desktop\\blockchain\\contracts\\healthCare.sol",
  "compiler": {
    "name": "solc",
    "version": "0.8.18+commit.87f61d96.Emscripten.clang"
  },
  "schemaVersion": "3.4.12",
  "updatedAt": "2023-04-01T10:39:02.078Z",
  "devdoc": {
    "kind": "dev",
    "methods": {},
    "version": 1
  },
  "userdoc": {
    "kind": "user",
    "methods": {},
    "version": 1
  }
}