{
  "contractName": "Patient",
  "abi": [
    {
      "inputs": [],
      "name": "getPatientInfo",
      "outputs": [
        {
          "internalType": "string",
          "name": "",
          "type": "string"
        },
        {
          "internalType": "uint8",
          "name": "",
          "type": "uint8"
        },
        {
          "internalType": "bytes32[]",
          "name": "",
          "type": "bytes32[]"
        },
        {
          "internalType": "address[]",
          "name": "",
          "type": "address[]"
        }
      ],
      "stateMutability": "view",
      "type": "function"
    },
    {
      "inputs": [
        {
          "internalType": "string",
          "name": "_name",
          "type": "string"
        },
        {
          "internalType": "uint8",
          "name": "_age",
          "type": "uint8"
        }
      ],
      "name": "signupPatient",
      "outputs": [],
      "stateMutability": "nonpayable",
      "type": "function"
    }
  ],
  "bytecode": "0x608060405234801561001057600080fd5b5061131a806100206000396000f3fe608060405234801561001057600080fd5b50600436106100365760003560e01c8063326df6641461003b5780637120203a1461005c575b600080fd5b610043610078565b6040516100539493929190610d7e565b60405180910390f35b61007660048036038101906100719190610f4d565b610552565b005b606060006060803360008060008373ffffffffffffffffffffffffffffffffffffffff1673ffffffffffffffffffffffffffffffffffffffff1681526020019081526020016000206040518060a00160405290816000820180546100db90610fd8565b80601f016020809104026020016040519081016040528092919081815260200182805461010790610fd8565b80156101545780601f1061012957610100808354040283529160200191610154565b820191906000526020600020905b81548152906001019060200180831161013757829003601f168201915b505050505081526020016001820160009054906101000a900460ff1660ff1660ff1681526020016001820160019054906101000a900473ffffffffffffffffffffffffffffffffffffffff1673ffffffffffffffffffffffffffffffffffffffff1673ffffffffffffffffffffffffffffffffffffffff1681526020016002820180548060200260200160405190810160405280929190818152602001828054801561021f57602002820191906000526020600020905b81548152602001906001019080831161020b575b50505050508152602001600382018054806020026020016040519081016040528092919081815260200182805480156102ad57602002820191906000526020600020905b8160009054906101000a900473ffffffffffffffffffffffffffffffffffffffff1673ffffffffffffffffffffffffffffffffffffffff1681526020019060010190808311610263575b5050505050815250509050600073ffffffffffffffffffffffffffffffffffffffff16816040015173ffffffffffffffffffffffffffffffffffffffff16116102f557600080fd5b60008060003373ffffffffffffffffffffffffffffffffffffffff1673ffffffffffffffffffffffffffffffffffffffff1681526020019081526020016000206040518060a001604052908160008201805461035090610fd8565b80601f016020809104026020016040519081016040528092919081815260200182805461037c90610fd8565b80156103c95780601f1061039e576101008083540402835291602001916103c9565b820191906000526020600020905b8154815290600101906020018083116103ac57829003601f168201915b505050505081526020016001820160009054906101000a900460ff1660ff1660ff1681526020016001820160019054906101000a900473ffffffffffffffffffffffffffffffffffffffff1673ffffffffffffffffffffffffffffffffffffffff1673ffffffffffffffffffffffffffffffffffffffff1681526020016002820180548060200260200160405190810160405280929190818152602001828054801561049457602002820191906000526020600020905b815481526020019060010190808311610480575b505050505081526020016003820180548060200260200160405190810160405280929190818152602001828054801561052257602002820191906000526020600020905b8160009054906101000a900473ffffffffffffffffffffffffffffffffffffffff1673ffffffffffffffffffffffffffffffffffffffff16815260200190600101908083116104d8575b50505050508152505090508060000151816020015182606001518360800151965096509650965050505090919293565b60008060003373ffffffffffffffffffffffffffffffffffffffff1673ffffffffffffffffffffffffffffffffffffffff1681526020019081526020016000206040518060a00160405290816000820180546105ad90610fd8565b80601f01602080910402602001604051908101604052809291908181526020018280546105d990610fd8565b80156106265780601f106105fb57610100808354040283529160200191610626565b820191906000526020600020905b81548152906001019060200180831161060957829003601f168201915b505050505081526020016001820160009054906101000a900460ff1660ff1660ff1681526020016001820160019054906101000a900473ffffffffffffffffffffffffffffffffffffffff1673ffffffffffffffffffffffffffffffffffffffff1673ffffffffffffffffffffffffffffffffffffffff168152602001600282018054806020026020016040519081016040528092919081815260200182805480156106f157602002820191906000526020600020905b8154815260200190600101908083116106dd575b505050505081526020016003820180548060200260200160405190810160405280929190818152602001828054801561077f57602002820191906000526020600020905b8160009054906101000a900473ffffffffffffffffffffffffffffffffffffffff1673ffffffffffffffffffffffffffffffffffffffff1681526020019060010190808311610735575b50505050508152505090507fc5d2460186f7233c927e7db2dcc703c0e500b653ca82273b7bfad8045d85a470836040516020016107bc9190611045565b60405160208183030381529060405280519060200120036107dc57600080fd5b60008260ff161180156107f2575060648260ff16105b6107fb57600080fd5b600073ffffffffffffffffffffffffffffffffffffffff16816040015173ffffffffffffffffffffffffffffffffffffffff16111561083957600080fd5b6040518060a001604052808481526020018360ff1681526020013373ffffffffffffffffffffffffffffffffffffffff168152602001600067ffffffffffffffff81111561088a57610889610df6565b5b6040519080825280602002602001820160405280156108b85781602001602082028036833780820191505090505b508152602001600067ffffffffffffffff8111156108d9576108d8610df6565b5b6040519080825280602002602001820160405280156109075781602001602082028036833780820191505090505b508152506000803373ffffffffffffffffffffffffffffffffffffffff1673ffffffffffffffffffffffffffffffffffffffff168152602001908152602001600020600082015181600001908161095e9190611212565b5060208201518160010160006101000a81548160ff021916908360ff16021790555060408201518160010160016101000a81548173ffffffffffffffffffffffffffffffffffffffff021916908373ffffffffffffffffffffffffffffffffffffffff16021790555060608201518160020190805190602001906109e3929190610a09565b506080820151816003019080519060200190610a00929190610a56565b50905050505050565b828054828255906000526020600020908101928215610a45579160200282015b82811115610a44578251825591602001919060010190610a29565b5b509050610a529190610ae0565b5090565b828054828255906000526020600020908101928215610acf579160200282015b82811115610ace5782518260006101000a81548173ffffffffffffffffffffffffffffffffffffffff021916908373ffffffffffffffffffffffffffffffffffffffff16021790555091602001919060010190610a76565b5b509050610adc9190610afd565b5090565b5b80821115610af9576000816000905550600101610ae1565b5090565b5b80821115610b16576000816000905550600101610afe565b5090565b600081519050919050565b600082825260208201905092915050565b60005b83811015610b54578082015181840152602081019050610b39565b60008484015250505050565b6000601f19601f8301169050919050565b6000610b7c82610b1a565b610b868185610b25565b9350610b96818560208601610b36565b610b9f81610b60565b840191505092915050565b600060ff82169050919050565b610bc081610baa565b82525050565b600081519050919050565b600082825260208201905092915050565b6000819050602082019050919050565b6000819050919050565b610c0581610bf2565b82525050565b6000610c178383610bfc565b60208301905092915050565b6000602082019050919050565b6000610c3b82610bc6565b610c458185610bd1565b9350610c5083610be2565b8060005b83811015610c81578151610c688882610c0b565b9750610c7383610c23565b925050600181019050610c54565b5085935050505092915050565b600081519050919050565b600082825260208201905092915050565b6000819050602082019050919050565b600073ffffffffffffffffffffffffffffffffffffffff82169050919050565b6000610ce582610cba565b9050919050565b610cf581610cda565b82525050565b6000610d078383610cec565b60208301905092915050565b6000602082019050919050565b6000610d2b82610c8e565b610d358185610c99565b9350610d4083610caa565b8060005b83811015610d71578151610d588882610cfb565b9750610d6383610d13565b925050600181019050610d44565b5085935050505092915050565b60006080820190508181036000830152610d988187610b71565b9050610da76020830186610bb7565b8181036040830152610db98185610c30565b90508181036060830152610dcd8184610d20565b905095945050505050565b6000604051905090565b600080fd5b600080fd5b600080fd5b600080fd5b7f4e487b7100000000000000000000000000000000000000000000000000000000600052604160045260246000fd5b610e2e82610b60565b810181811067ffffffffffffffff82111715610e4d57610e4c610df6565b5b80604052505050565b6000610e60610dd8565b9050610e6c8282610e25565b919050565b600067ffffffffffffffff821115610e8c57610e8b610df6565b5b610e9582610b60565b9050602081019050919050565b82818337600083830152505050565b6000610ec4610ebf84610e71565b610e56565b905082815260208101848484011115610ee057610edf610df1565b5b610eeb848285610ea2565b509392505050565b600082601f830112610f0857610f07610dec565b5b8135610f18848260208601610eb1565b91505092915050565b610f2a81610baa565b8114610f3557600080fd5b50565b600081359050610f4781610f21565b92915050565b60008060408385031215610f6457610f63610de2565b5b600083013567ffffffffffffffff811115610f8257610f81610de7565b5b610f8e85828601610ef3565b9250506020610f9f85828601610f38565b9150509250929050565b7f4e487b7100000000000000000000000000000000000000000000000000000000600052602260045260246000fd5b60006002820490506001821680610ff057607f821691505b60208210810361100357611002610fa9565b5b50919050565b600081905092915050565b600061101f82610b1a565b6110298185611009565b9350611039818560208601610b36565b80840191505092915050565b60006110518284611014565b915081905092915050565b60008190508160005260206000209050919050565b60006020601f8301049050919050565b600082821b905092915050565b6000600883026110be7fffffffffffffffffffffffffffffffffffffffffffffffffffffffffffffffff82611081565b6110c88683611081565b95508019841693508086168417925050509392505050565b6000819050919050565b6000819050919050565b600061110f61110a611105846110e0565b6110ea565b6110e0565b9050919050565b6000819050919050565b611129836110f4565b61113d61113582611116565b84845461108e565b825550505050565b600090565b611152611145565b61115d818484611120565b505050565b5b818110156111815761117660008261114a565b600181019050611163565b5050565b601f8211156111c6576111978161105c565b6111a084611071565b810160208510156111af578190505b6111c36111bb85611071565b830182611162565b50505b505050565b600082821c905092915050565b60006111e9600019846008026111cb565b1980831691505092915050565b600061120283836111d8565b9150826002028217905092915050565b61121b82610b1a565b67ffffffffffffffff81111561123457611233610df6565b5b61123e8254610fd8565b611249828285611185565b600060209050601f83116001811461127c576000841561126a578287015190505b61127485826111f6565b8655506112dc565b601f19841661128a8661105c565b60005b828110156112b25784890151825560018201915060208501945060208101905061128d565b868310156112cf57848901516112cb601f8916826111d8565b8355505b6001600288020188555050505b50505050505056fea2646970667358221220381641972fec252579f0301d5db8ecba9b1b4a0ce9f4211add699da814f88fc564736f6c63430008120033",
  "immutableReferences": {},
  "source": "//SPDX-License-Identifier: MIT\r\npragma solidity ^0.8.11;\r\n\r\ncontract Patient {\r\n    mapping (address => patient) internal patients;\r\n    mapping (address => mapping (address => uint)) internal patientToDoctor;\r\n    mapping (address => mapping (bytes32 => uint)) internal patientToFile;\r\n    \r\n    struct patient {\r\n        string name;\r\n        uint8 age;\r\n        address id;\r\n        bytes32[] files;// hashes of file that belong to this user for display purpose\r\n        address[] doctor_list;\r\n    }\r\n    \r\n    modifier checkPatient(address id) {\r\n        patient memory p = patients[id];\r\n        require(p.id > address(0x0));//check if patient exist\r\n        _;\r\n    }\r\n    \r\n    function getPatientInfo() public view checkPatient(msg.sender) returns(string memory, uint8, bytes32[] memory, address[] memory) {\r\n        patient memory p = patients[msg.sender];\r\n        return (p.name, p.age, p.files, p.doctor_list);\r\n    }\r\n    \r\n    function signupPatient(string memory _name, uint8 _age) public {\r\n        patient memory p = patients[msg.sender];\r\n        require(keccak256(abi.encodePacked(_name)) != keccak256(\"\"));\r\n        require((_age > 0) && (_age < 100));\r\n        require(!(p.id > address(0x0)));\r\n\r\n        patients[msg.sender] = patient({name:_name,age:_age,id:msg.sender,files:new bytes32[](0),doctor_list:new address[](0)});\r\n    }\r\n\r\n}",
  "sourcePath": "C:\\Users\\Hp\\Desktop\\blockchain\\contracts\\patient.sol",
  "compiler": {
    "name": "solc",
    "version": "0.8.18+commit.87f61d96.Emscripten.clang"
  },
  "schemaVersion": "3.4.12",
  "updatedAt": "2023-04-01T10:39:02.259Z",
  "devdoc": {
    "kind": "dev",
    "methods": {},
    "version": 1
  },
  "userdoc": {
    "kind": "user",
    "methods": {},
    "version": 1
  }
}